{
	"programa/MulticontractWallet/UserWallet.sol": {
		"UserWallet": {
			"abi": [
				{
					"inputs": [
						{
							"internalType": "address",
							"name": "_accessManager",
							"type": "address"
						}
					],
					"stateMutability": "nonpayable",
					"type": "constructor"
				},
				{
					"anonymous": false,
					"inputs": [
						{
							"indexed": false,
							"internalType": "address",
							"name": "_address",
							"type": "address"
						}
					],
					"name": "ApprovedAddress",
					"type": "event"
				},
				{
					"anonymous": false,
					"inputs": [
						{
							"indexed": false,
							"internalType": "address",
							"name": "_sender",
							"type": "address"
						},
						{
							"indexed": false,
							"internalType": "uint256",
							"name": "_amount",
							"type": "uint256"
						}
					],
					"name": "Deposit",
					"type": "event"
				},
				{
					"anonymous": false,
					"inputs": [
						{
							"indexed": false,
							"internalType": "address",
							"name": "_address",
							"type": "address"
						}
					],
					"name": "RevokedAddress",
					"type": "event"
				},
				{
					"anonymous": false,
					"inputs": [
						{
							"indexed": false,
							"internalType": "address",
							"name": "_recipient",
							"type": "address"
						},
						{
							"indexed": false,
							"internalType": "uint256",
							"name": "_amount",
							"type": "uint256"
						}
					],
					"name": "Withdraw",
					"type": "event"
				},
				{
					"stateMutability": "payable",
					"type": "fallback"
				},
				{
					"inputs": [],
					"name": "accessManager",
					"outputs": [
						{
							"internalType": "contract IAccessManager",
							"name": "",
							"type": "address"
						}
					],
					"stateMutability": "view",
					"type": "function"
				},
				{
					"inputs": [
						{
							"internalType": "address",
							"name": "_approveedAddress",
							"type": "address"
						}
					],
					"name": "approveAddress",
					"outputs": [],
					"stateMutability": "nonpayable",
					"type": "function"
				},
				{
					"inputs": [],
					"name": "depositEther",
					"outputs": [],
					"stateMutability": "payable",
					"type": "function"
				},
				{
					"inputs": [],
					"name": "owner",
					"outputs": [
						{
							"internalType": "address",
							"name": "",
							"type": "address"
						}
					],
					"stateMutability": "view",
					"type": "function"
				},
				{
					"inputs": [
						{
							"internalType": "address",
							"name": "_approveedAddress",
							"type": "address"
						}
					],
					"name": "revokeApproval",
					"outputs": [],
					"stateMutability": "nonpayable",
					"type": "function"
				},
				{
					"inputs": [
						{
							"internalType": "uint256",
							"name": "_amount",
							"type": "uint256"
						}
					],
					"name": "withdrawEther",
					"outputs": [],
					"stateMutability": "nonpayable",
					"type": "function"
				},
				{
					"stateMutability": "payable",
					"type": "receive"
				}
			],
			"devdoc": {
				"kind": "dev",
				"methods": {},
				"version": 1
			},
			"evm": {
				"assembly": "    /* \"programa/MulticontractWallet/UserWallet.sol\":107:1954  contract UserWallet {... */\n  mstore(0x40, 0x80)\n    /* \"programa/MulticontractWallet/UserWallet.sol\":770:900  constructor (address _accessManager){... */\n  callvalue\n  dup1\n  iszero\n  tag_1\n  jumpi\n  0x00\n  dup1\n  revert\ntag_1:\n  pop\n  mload(0x40)\n  sub(codesize, bytecodeSize)\n  dup1\n  bytecodeSize\n  dup4\n  codecopy\n  dup2\n  dup2\n  add\n  0x40\n  mstore\n  dup2\n  add\n  swap1\n  tag_2\n  swap2\n  swap1\n  tag_3\n  jump\t// in\ntag_2:\n    /* \"programa/MulticontractWallet/UserWallet.sol\":825:835  msg.sender */\n  caller\n    /* \"programa/MulticontractWallet/UserWallet.sol\":817:822  owner */\n  0x00\n  dup1\n    /* \"programa/MulticontractWallet/UserWallet.sol\":817:835  owner = msg.sender */\n  0x0100\n  exp\n  dup2\n  sload\n  dup2\n  0xffffffffffffffffffffffffffffffffffffffff\n  mul\n  not\n  and\n  swap1\n  dup4\n  0xffffffffffffffffffffffffffffffffffffffff\n  and\n  mul\n  or\n  swap1\n  sstore\n  pop\n    /* \"programa/MulticontractWallet/UserWallet.sol\":877:891  _accessManager */\n  dup1\n    /* \"programa/MulticontractWallet/UserWallet.sol\":846:859  accessManager */\n  0x01\n  0x00\n    /* \"programa/MulticontractWallet/UserWallet.sol\":846:892  accessManager = IAccessManager(_accessManager) */\n  0x0100\n  exp\n  dup2\n  sload\n  dup2\n  0xffffffffffffffffffffffffffffffffffffffff\n  mul\n  not\n  and\n  swap1\n  dup4\n  0xffffffffffffffffffffffffffffffffffffffff\n  and\n  mul\n  or\n  swap1\n  sstore\n  pop\n    /* \"programa/MulticontractWallet/UserWallet.sol\":770:900  constructor (address _accessManager){... */\n  pop\n    /* \"programa/MulticontractWallet/UserWallet.sol\":107:1954  contract UserWallet {... */\n  jump(tag_6)\n    /* \"#utility.yul\":88:205   */\ntag_8:\n    /* \"#utility.yul\":197:198   */\n  0x00\n    /* \"#utility.yul\":194:195   */\n  dup1\n    /* \"#utility.yul\":187:199   */\n  revert\n    /* \"#utility.yul\":334:460   */\ntag_10:\n    /* \"#utility.yul\":371:378   */\n  0x00\n    /* \"#utility.yul\":411:453   */\n  0xffffffffffffffffffffffffffffffffffffffff\n    /* \"#utility.yul\":404:409   */\n  dup3\n    /* \"#utility.yul\":400:454   */\n  and\n    /* \"#utility.yul\":389:454   */\n  swap1\n  pop\n    /* \"#utility.yul\":334:460   */\n  swap2\n  swap1\n  pop\n  jump\t// out\n    /* \"#utility.yul\":466:562   */\ntag_11:\n    /* \"#utility.yul\":503:510   */\n  0x00\n    /* \"#utility.yul\":532:556   */\n  tag_20\n    /* \"#utility.yul\":550:555   */\n  dup3\n    /* \"#utility.yul\":532:556   */\n  tag_10\n  jump\t// in\ntag_20:\n    /* \"#utility.yul\":521:556   */\n  swap1\n  pop\n    /* \"#utility.yul\":466:562   */\n  swap2\n  swap1\n  pop\n  jump\t// out\n    /* \"#utility.yul\":568:690   */\ntag_12:\n    /* \"#utility.yul\":641:665   */\n  tag_22\n    /* \"#utility.yul\":659:664   */\n  dup2\n    /* \"#utility.yul\":641:665   */\n  tag_11\n  jump\t// in\ntag_22:\n    /* \"#utility.yul\":634:639   */\n  dup2\n    /* \"#utility.yul\":631:666   */\n  eq\n    /* \"#utility.yul\":621:684   */\n  tag_23\n  jumpi\n    /* \"#utility.yul\":680:681   */\n  0x00\n    /* \"#utility.yul\":677:678   */\n  dup1\n    /* \"#utility.yul\":670:682   */\n  revert\n    /* \"#utility.yul\":621:684   */\ntag_23:\n    /* \"#utility.yul\":568:690   */\n  pop\n  jump\t// out\n    /* \"#utility.yul\":696:839   */\ntag_13:\n    /* \"#utility.yul\":753:758   */\n  0x00\n    /* \"#utility.yul\":784:790   */\n  dup2\n    /* \"#utility.yul\":778:791   */\n  mload\n    /* \"#utility.yul\":769:791   */\n  swap1\n  pop\n    /* \"#utility.yul\":800:833   */\n  tag_25\n    /* \"#utility.yul\":827:832   */\n  dup2\n    /* \"#utility.yul\":800:833   */\n  tag_12\n  jump\t// in\ntag_25:\n    /* \"#utility.yul\":696:839   */\n  swap3\n  swap2\n  pop\n  pop\n  jump\t// out\n    /* \"#utility.yul\":845:1196   */\ntag_3:\n    /* \"#utility.yul\":915:921   */\n  0x00\n    /* \"#utility.yul\":964:966   */\n  0x20\n    /* \"#utility.yul\":952:961   */\n  dup3\n    /* \"#utility.yul\":943:950   */\n  dup5\n    /* \"#utility.yul\":939:962   */\n  sub\n    /* \"#utility.yul\":935:967   */\n  slt\n    /* \"#utility.yul\":932:1051   */\n  iszero\n  tag_27\n  jumpi\n    /* \"#utility.yul\":970:1049   */\n  tag_28\n  tag_8\n  jump\t// in\ntag_28:\n    /* \"#utility.yul\":932:1051   */\ntag_27:\n    /* \"#utility.yul\":1090:1091   */\n  0x00\n    /* \"#utility.yul\":1115:1179   */\n  tag_29\n    /* \"#utility.yul\":1171:1178   */\n  dup5\n    /* \"#utility.yul\":1162:1168   */\n  dup3\n    /* \"#utility.yul\":1151:1160   */\n  dup6\n    /* \"#utility.yul\":1147:1169   */\n  add\n    /* \"#utility.yul\":1115:1179   */\n  tag_13\n  jump\t// in\ntag_29:\n    /* \"#utility.yul\":1105:1179   */\n  swap2\n  pop\n    /* \"#utility.yul\":1061:1189   */\n  pop\n    /* \"#utility.yul\":845:1196   */\n  swap3\n  swap2\n  pop\n  pop\n  jump\t// out\n    /* \"programa/MulticontractWallet/UserWallet.sol\":107:1954  contract UserWallet {... */\ntag_6:\n  dataSize(sub_0)\n  dup1\n  dataOffset(sub_0)\n  0x00\n  codecopy\n  0x00\n  return\nstop\n\nsub_0: assembly {\n        /* \"programa/MulticontractWallet/UserWallet.sol\":107:1954  contract UserWallet {... */\n      mstore(0x40, 0x80)\n      jumpi(tag_1, lt(calldatasize, 0x04))\n      shr(0xe0, calldataload(0x00))\n      dup1\n      0x3bed33ce\n      eq\n      tag_3\n      jumpi\n      dup1\n      0x484685b0\n      eq\n      tag_4\n      jumpi\n      dup1\n      0x8da5cb5b\n      eq\n      tag_5\n      jumpi\n      dup1\n      0x98ea5fca\n      eq\n      tag_6\n      jumpi\n      dup1\n      0xfabf657a\n      eq\n      tag_7\n      jumpi\n      dup1\n      0xfdcb6068\n      eq\n      tag_8\n      jumpi\n      jump(tag_2)\n    tag_1:\n      jumpi(tag_2, calldatasize)\n        /* \"programa/MulticontractWallet/UserWallet.sol\":1726:1727  0 */\n      0x00\n        /* \"programa/MulticontractWallet/UserWallet.sol\":1714:1723  msg.value */\n      callvalue\n        /* \"programa/MulticontractWallet/UserWallet.sol\":1714:1727  msg.value > 0 */\n      gt\n        /* \"programa/MulticontractWallet/UserWallet.sol\":1706:1743  require(msg.value > 0, \"No ETH sent\") */\n      tag_11\n      jumpi\n      mload(0x40)\n      0x08c379a000000000000000000000000000000000000000000000000000000000\n      dup2\n      mstore\n      0x04\n      add\n      tag_12\n      swap1\n      tag_13\n      jump\t// in\n    tag_12:\n      mload(0x40)\n      dup1\n      swap2\n      sub\n      swap1\n      revert\n    tag_11:\n        /* \"programa/MulticontractWallet/UserWallet.sol\":1759:1788  Deposit(tx.origin, msg.value) */\n      0xe1fffcc4923d04b559f4d29a8bfc6cda04eb5b0d3c460751c2402c5c5cc9109c\n        /* \"programa/MulticontractWallet/UserWallet.sol\":1767:1776  tx.origin */\n      origin\n        /* \"programa/MulticontractWallet/UserWallet.sol\":1778:1787  msg.value */\n      callvalue\n        /* \"programa/MulticontractWallet/UserWallet.sol\":1759:1788  Deposit(tx.origin, msg.value) */\n      mload(0x40)\n      tag_14\n      swap3\n      swap2\n      swap1\n      tag_15\n      jump\t// in\n    tag_14:\n      mload(0x40)\n      dup1\n      swap2\n      sub\n      swap1\n      log1\n        /* \"programa/MulticontractWallet/UserWallet.sol\":107:1954  contract UserWallet {... */\n      stop\n    tag_2:\n        /* \"programa/MulticontractWallet/UserWallet.sol\":1863:1864  0 */\n      0x00\n        /* \"programa/MulticontractWallet/UserWallet.sol\":1851:1860  msg.value */\n      callvalue\n        /* \"programa/MulticontractWallet/UserWallet.sol\":1851:1864  msg.value > 0 */\n      gt\n        /* \"programa/MulticontractWallet/UserWallet.sol\":1843:1898  require(msg.value > 0, \"Fallback called without value\") */\n      tag_18\n      jumpi\n      mload(0x40)\n      0x08c379a000000000000000000000000000000000000000000000000000000000\n      dup2\n      mstore\n      0x04\n      add\n      tag_19\n      swap1\n      tag_20\n      jump\t// in\n    tag_19:\n      mload(0x40)\n      dup1\n      swap2\n      sub\n      swap1\n      revert\n    tag_18:\n        /* \"programa/MulticontractWallet/UserWallet.sol\":1914:1943  Deposit(tx.origin, msg.value) */\n      0xe1fffcc4923d04b559f4d29a8bfc6cda04eb5b0d3c460751c2402c5c5cc9109c\n        /* \"programa/MulticontractWallet/UserWallet.sol\":1922:1931  tx.origin */\n      origin\n        /* \"programa/MulticontractWallet/UserWallet.sol\":1933:1942  msg.value */\n      callvalue\n        /* \"programa/MulticontractWallet/UserWallet.sol\":1914:1943  Deposit(tx.origin, msg.value) */\n      mload(0x40)\n      tag_21\n      swap3\n      swap2\n      swap1\n      tag_15\n      jump\t// in\n    tag_21:\n      mload(0x40)\n      dup1\n      swap2\n      sub\n      swap1\n      log1\n        /* \"programa/MulticontractWallet/UserWallet.sol\":107:1954  contract UserWallet {... */\n      stop\n        /* \"programa/MulticontractWallet/UserWallet.sol\":1440:1660  function withdrawEther(uint256 _amount) external OnlyApproved{... */\n    tag_3:\n      callvalue\n      dup1\n      iszero\n      tag_22\n      jumpi\n      0x00\n      dup1\n      revert\n    tag_22:\n      pop\n      tag_23\n      0x04\n      dup1\n      calldatasize\n      sub\n      dup2\n      add\n      swap1\n      tag_24\n      swap2\n      swap1\n      tag_25\n      jump\t// in\n    tag_24:\n      tag_26\n      jump\t// in\n    tag_23:\n      stop\n        /* \"programa/MulticontractWallet/UserWallet.sol\":1124:1330  function revokeApproval(address _approveedAddress) public OnlyOwner {... */\n    tag_4:\n      callvalue\n      dup1\n      iszero\n      tag_27\n      jumpi\n      0x00\n      dup1\n      revert\n    tag_27:\n      pop\n      tag_28\n      0x04\n      dup1\n      calldatasize\n      sub\n      dup2\n      add\n      swap1\n      tag_29\n      swap2\n      swap1\n      tag_30\n      jump\t// in\n    tag_29:\n      tag_31\n      jump\t// in\n    tag_28:\n      stop\n        /* \"programa/MulticontractWallet/UserWallet.sol\":153:173  address public owner */\n    tag_5:\n      callvalue\n      dup1\n      iszero\n      tag_32\n      jumpi\n      0x00\n      dup1\n      revert\n    tag_32:\n      pop\n      tag_33\n      tag_34\n      jump\t// in\n    tag_33:\n      mload(0x40)\n      tag_35\n      swap2\n      swap1\n      tag_36\n      jump\t// in\n    tag_35:\n      mload(0x40)\n      dup1\n      swap2\n      sub\n      swap1\n      return\n        /* \"programa/MulticontractWallet/UserWallet.sol\":1338:1432  function depositEther() external payable {... */\n    tag_6:\n      tag_37\n      tag_38\n      jump\t// in\n    tag_37:\n      stop\n        /* \"programa/MulticontractWallet/UserWallet.sol\":908:1114  function approveAddress(address _approveedAddress) public OnlyOwner {... */\n    tag_7:\n      callvalue\n      dup1\n      iszero\n      tag_39\n      jumpi\n      0x00\n      dup1\n      revert\n    tag_39:\n      pop\n      tag_40\n      0x04\n      dup1\n      calldatasize\n      sub\n      dup2\n      add\n      swap1\n      tag_41\n      swap2\n      swap1\n      tag_30\n      jump\t// in\n    tag_41:\n      tag_42\n      jump\t// in\n    tag_40:\n      stop\n        /* \"programa/MulticontractWallet/UserWallet.sol\":180:215  IAccessManager public accessManager */\n    tag_8:\n      callvalue\n      dup1\n      iszero\n      tag_43\n      jumpi\n      0x00\n      dup1\n      revert\n    tag_43:\n      pop\n      tag_44\n      tag_45\n      jump\t// in\n    tag_44:\n      mload(0x40)\n      tag_46\n      swap2\n      swap1\n      tag_47\n      jump\t// in\n    tag_46:\n      mload(0x40)\n      dup1\n      swap2\n      sub\n      swap1\n      return\n        /* \"programa/MulticontractWallet/UserWallet.sol\":1440:1660  function withdrawEther(uint256 _amount) external OnlyApproved{... */\n    tag_26:\n        /* \"programa/MulticontractWallet/UserWallet.sol\":397:410  accessManager */\n      0x01\n      0x00\n      swap1\n      sload\n      swap1\n      0x0100\n      exp\n      swap1\n      div\n      0xffffffffffffffffffffffffffffffffffffffff\n      and\n        /* \"programa/MulticontractWallet/UserWallet.sol\":397:429  accessManager.isContractApproved */\n      0xffffffffffffffffffffffffffffffffffffffff\n      and\n      0x074864db\n        /* \"programa/MulticontractWallet/UserWallet.sol\":438:442  this */\n      address\n        /* \"programa/MulticontractWallet/UserWallet.sol\":445:454  tx.origin */\n      origin\n        /* \"programa/MulticontractWallet/UserWallet.sol\":397:455  accessManager.isContractApproved(address(this), tx.origin) */\n      mload(0x40)\n      dup4\n      0xffffffff\n      and\n      0xe0\n      shl\n      dup2\n      mstore\n      0x04\n      add\n      tag_49\n      swap3\n      swap2\n      swap1\n      tag_50\n      jump\t// in\n    tag_49:\n      0x20\n      mload(0x40)\n      dup1\n      dup4\n      sub\n      dup2\n      dup7\n      gas\n      staticcall\n      iszero\n      dup1\n      iszero\n      tag_52\n      jumpi\n      returndatasize\n      0x00\n      dup1\n      returndatacopy\n      revert(0x00, returndatasize)\n    tag_52:\n      pop\n      pop\n      pop\n      pop\n      mload(0x40)\n      returndatasize\n      not(0x1f)\n      0x1f\n      dup3\n      add\n      and\n      dup3\n      add\n      dup1\n      0x40\n      mstore\n      pop\n      dup2\n      add\n      swap1\n      tag_53\n      swap2\n      swap1\n      tag_54\n      jump\t// in\n    tag_53:\n        /* \"programa/MulticontractWallet/UserWallet.sol\":389:506  require(accessManager.isContractApproved(address(this), tx.origin), \"The sender does not have the required approval\") */\n      tag_55\n      jumpi\n      mload(0x40)\n      0x08c379a000000000000000000000000000000000000000000000000000000000\n      dup2\n      mstore\n      0x04\n      add\n      tag_56\n      swap1\n      tag_57\n      jump\t// in\n    tag_56:\n      mload(0x40)\n      dup1\n      swap2\n      sub\n      swap1\n      revert\n    tag_55:\n        /* \"programa/MulticontractWallet/UserWallet.sol\":1513:1525  bool success */\n      0x00\n        /* \"programa/MulticontractWallet/UserWallet.sol\":1530:1539  tx.origin */\n      origin\n        /* \"programa/MulticontractWallet/UserWallet.sol\":1530:1544  tx.origin.call */\n      0xffffffffffffffffffffffffffffffffffffffff\n      and\n        /* \"programa/MulticontractWallet/UserWallet.sol\":1551:1558  _amount */\n      dup3\n        /* \"programa/MulticontractWallet/UserWallet.sol\":1530:1563  tx.origin.call{value:_amount}(\"\") */\n      mload(0x40)\n      tag_59\n      swap1\n      tag_60\n      jump\t// in\n    tag_59:\n      0x00\n      mload(0x40)\n      dup1\n      dup4\n      sub\n      dup2\n      dup6\n      dup8\n      gas\n      call\n      swap3\n      pop\n      pop\n      pop\n      returndatasize\n      dup1\n      0x00\n      dup2\n      eq\n      tag_63\n      jumpi\n      mload(0x40)\n      swap2\n      pop\n      and(add(returndatasize, 0x3f), not(0x1f))\n      dup3\n      add\n      0x40\n      mstore\n      returndatasize\n      dup3\n      mstore\n      returndatasize\n      0x00\n      0x20\n      dup5\n      add\n      returndatacopy\n      jump(tag_62)\n    tag_63:\n      0x60\n      swap2\n      pop\n    tag_62:\n      pop\n        /* \"programa/MulticontractWallet/UserWallet.sol\":1512:1563  (bool success,) = tx.origin.call{value:_amount}(\"\") */\n      pop\n      swap1\n      pop\n        /* \"programa/MulticontractWallet/UserWallet.sol\":1582:1589  success */\n      dup1\n        /* \"programa/MulticontractWallet/UserWallet.sol\":1574:1608  require(success, \"Withdraw error\") */\n      tag_64\n      jumpi\n      mload(0x40)\n      0x08c379a000000000000000000000000000000000000000000000000000000000\n      dup2\n      mstore\n      0x04\n      add\n      tag_65\n      swap1\n      tag_66\n      jump\t// in\n    tag_65:\n      mload(0x40)\n      dup1\n      swap2\n      sub\n      swap1\n      revert\n    tag_64:\n        /* \"programa/MulticontractWallet/UserWallet.sol\":1624:1652  Withdraw(tx.origin, _amount) */\n      0x884edad9ce6fa2440d8a54cc123490eb96d2768479d49ff9c7366125a9424364\n        /* \"programa/MulticontractWallet/UserWallet.sol\":1633:1642  tx.origin */\n      origin\n        /* \"programa/MulticontractWallet/UserWallet.sol\":1644:1651  _amount */\n      dup4\n        /* \"programa/MulticontractWallet/UserWallet.sol\":1624:1652  Withdraw(tx.origin, _amount) */\n      mload(0x40)\n      tag_67\n      swap3\n      swap2\n      swap1\n      tag_15\n      jump\t// in\n    tag_67:\n      mload(0x40)\n      dup1\n      swap2\n      sub\n      swap1\n      log1\n        /* \"programa/MulticontractWallet/UserWallet.sol\":1501:1660  {... */\n      pop\n        /* \"programa/MulticontractWallet/UserWallet.sol\":1440:1660  function withdrawEther(uint256 _amount) external OnlyApproved{... */\n      pop\n      jump\t// out\n        /* \"programa/MulticontractWallet/UserWallet.sol\":1124:1330  function revokeApproval(address _approveedAddress) public OnlyOwner {... */\n    tag_31:\n        /* \"programa/MulticontractWallet/UserWallet.sol\":291:301  msg.sender */\n      caller\n        /* \"programa/MulticontractWallet/UserWallet.sol\":282:301  owner == msg.sender */\n      0xffffffffffffffffffffffffffffffffffffffff\n      and\n        /* \"programa/MulticontractWallet/UserWallet.sol\":282:287  owner */\n      0x00\n      dup1\n      sload\n      swap1\n      0x0100\n      exp\n      swap1\n      div\n      0xffffffffffffffffffffffffffffffffffffffff\n      and\n        /* \"programa/MulticontractWallet/UserWallet.sol\":282:301  owner == msg.sender */\n      0xffffffffffffffffffffffffffffffffffffffff\n      and\n      eq\n        /* \"programa/MulticontractWallet/UserWallet.sol\":274:327  require(owner == msg.sender, \"You are not the owner\") */\n      tag_69\n      jumpi\n      mload(0x40)\n      0x08c379a000000000000000000000000000000000000000000000000000000000\n      dup2\n      mstore\n      0x04\n      add\n      tag_70\n      swap1\n      tag_71\n      jump\t// in\n    tag_70:\n      mload(0x40)\n      dup1\n      swap2\n      sub\n      swap1\n      revert\n    tag_69:\n        /* \"programa/MulticontractWallet/UserWallet.sol\":1203:1216  accessManager */\n      0x01\n      0x00\n      swap1\n      sload\n      swap1\n      0x0100\n      exp\n      swap1\n      div\n      0xffffffffffffffffffffffffffffffffffffffff\n      and\n        /* \"programa/MulticontractWallet/UserWallet.sol\":1203:1232  accessManager.approveContract */\n      0xffffffffffffffffffffffffffffffffffffffff\n      and\n      0xcc8f6fb8\n        /* \"programa/MulticontractWallet/UserWallet.sol\":1241:1245  this */\n      address\n        /* \"programa/MulticontractWallet/UserWallet.sol\":1248:1265  _approveedAddress */\n      dup4\n        /* \"programa/MulticontractWallet/UserWallet.sol\":1267:1272  false */\n      0x00\n        /* \"programa/MulticontractWallet/UserWallet.sol\":1203:1273  accessManager.approveContract(address(this), _approveedAddress, false) */\n      mload(0x40)\n      dup5\n      0xffffffff\n      and\n      0xe0\n      shl\n      dup2\n      mstore\n      0x04\n      add\n      tag_73\n      swap4\n      swap3\n      swap2\n      swap1\n      tag_74\n      jump\t// in\n    tag_73:\n      0x00\n      mload(0x40)\n      dup1\n      dup4\n      sub\n      dup2\n      0x00\n      dup8\n      dup1\n      extcodesize\n      iszero\n      dup1\n      iszero\n      tag_75\n      jumpi\n      0x00\n      dup1\n      revert\n    tag_75:\n      pop\n      gas\n      call\n      iszero\n      dup1\n      iszero\n      tag_77\n      jumpi\n      returndatasize\n      0x00\n      dup1\n      returndatacopy\n      revert(0x00, returndatasize)\n    tag_77:\n      pop\n      pop\n      pop\n      pop\n        /* \"programa/MulticontractWallet/UserWallet.sol\":1289:1322  RevokedAddress(_approveedAddress) */\n      0x6b71a032dfcb3458d3c044d9fb7cbb8eee40244f1ced7dff4f5005589aa82245\n        /* \"programa/MulticontractWallet/UserWallet.sol\":1304:1321  _approveedAddress */\n      dup2\n        /* \"programa/MulticontractWallet/UserWallet.sol\":1289:1322  RevokedAddress(_approveedAddress) */\n      mload(0x40)\n      tag_78\n      swap2\n      swap1\n      tag_36\n      jump\t// in\n    tag_78:\n      mload(0x40)\n      dup1\n      swap2\n      sub\n      swap1\n      log1\n        /* \"programa/MulticontractWallet/UserWallet.sol\":1124:1330  function revokeApproval(address _approveedAddress) public OnlyOwner {... */\n      pop\n      jump\t// out\n        /* \"programa/MulticontractWallet/UserWallet.sol\":153:173  address public owner */\n    tag_34:\n      0x00\n      dup1\n      sload\n      swap1\n      0x0100\n      exp\n      swap1\n      div\n      0xffffffffffffffffffffffffffffffffffffffff\n      and\n      dup2\n      jump\t// out\n        /* \"programa/MulticontractWallet/UserWallet.sol\":1338:1432  function depositEther() external payable {... */\n    tag_38:\n        /* \"programa/MulticontractWallet/UserWallet.sol\":1395:1424  Deposit(tx.origin, msg.value) */\n      0xe1fffcc4923d04b559f4d29a8bfc6cda04eb5b0d3c460751c2402c5c5cc9109c\n        /* \"programa/MulticontractWallet/UserWallet.sol\":1403:1412  tx.origin */\n      origin\n        /* \"programa/MulticontractWallet/UserWallet.sol\":1414:1423  msg.value */\n      callvalue\n        /* \"programa/MulticontractWallet/UserWallet.sol\":1395:1424  Deposit(tx.origin, msg.value) */\n      mload(0x40)\n      tag_80\n      swap3\n      swap2\n      swap1\n      tag_15\n      jump\t// in\n    tag_80:\n      mload(0x40)\n      dup1\n      swap2\n      sub\n      swap1\n      log1\n        /* \"programa/MulticontractWallet/UserWallet.sol\":1338:1432  function depositEther() external payable {... */\n      jump\t// out\n        /* \"programa/MulticontractWallet/UserWallet.sol\":908:1114  function approveAddress(address _approveedAddress) public OnlyOwner {... */\n    tag_42:\n        /* \"programa/MulticontractWallet/UserWallet.sol\":291:301  msg.sender */\n      caller\n        /* \"programa/MulticontractWallet/UserWallet.sol\":282:301  owner == msg.sender */\n      0xffffffffffffffffffffffffffffffffffffffff\n      and\n        /* \"programa/MulticontractWallet/UserWallet.sol\":282:287  owner */\n      0x00\n      dup1\n      sload\n      swap1\n      0x0100\n      exp\n      swap1\n      div\n      0xffffffffffffffffffffffffffffffffffffffff\n      and\n        /* \"programa/MulticontractWallet/UserWallet.sol\":282:301  owner == msg.sender */\n      0xffffffffffffffffffffffffffffffffffffffff\n      and\n      eq\n        /* \"programa/MulticontractWallet/UserWallet.sol\":274:327  require(owner == msg.sender, \"You are not the owner\") */\n      tag_82\n      jumpi\n      mload(0x40)\n      0x08c379a000000000000000000000000000000000000000000000000000000000\n      dup2\n      mstore\n      0x04\n      add\n      tag_83\n      swap1\n      tag_71\n      jump\t// in\n    tag_83:\n      mload(0x40)\n      dup1\n      swap2\n      sub\n      swap1\n      revert\n    tag_82:\n        /* \"programa/MulticontractWallet/UserWallet.sol\":987:1000  accessManager */\n      0x01\n      0x00\n      swap1\n      sload\n      swap1\n      0x0100\n      exp\n      swap1\n      div\n      0xffffffffffffffffffffffffffffffffffffffff\n      and\n        /* \"programa/MulticontractWallet/UserWallet.sol\":987:1016  accessManager.approveContract */\n      0xffffffffffffffffffffffffffffffffffffffff\n      and\n      0xcc8f6fb8\n        /* \"programa/MulticontractWallet/UserWallet.sol\":1025:1029  this */\n      address\n        /* \"programa/MulticontractWallet/UserWallet.sol\":1032:1049  _approveedAddress */\n      dup4\n        /* \"programa/MulticontractWallet/UserWallet.sol\":1051:1055  true */\n      0x01\n        /* \"programa/MulticontractWallet/UserWallet.sol\":987:1056  accessManager.approveContract(address(this), _approveedAddress, true) */\n      mload(0x40)\n      dup5\n      0xffffffff\n      and\n      0xe0\n      shl\n      dup2\n      mstore\n      0x04\n      add\n      tag_85\n      swap4\n      swap3\n      swap2\n      swap1\n      tag_74\n      jump\t// in\n    tag_85:\n      0x00\n      mload(0x40)\n      dup1\n      dup4\n      sub\n      dup2\n      0x00\n      dup8\n      dup1\n      extcodesize\n      iszero\n      dup1\n      iszero\n      tag_86\n      jumpi\n      0x00\n      dup1\n      revert\n    tag_86:\n      pop\n      gas\n      call\n      iszero\n      dup1\n      iszero\n      tag_88\n      jumpi\n      returndatasize\n      0x00\n      dup1\n      returndatacopy\n      revert(0x00, returndatasize)\n    tag_88:\n      pop\n      pop\n      pop\n      pop\n        /* \"programa/MulticontractWallet/UserWallet.sol\":1072:1106  ApprovedAddress(_approveedAddress) */\n      0xc2c78c7c31baf14949e75c51df12be56edb9af523cf82839c2869bbcf13b3ecb\n        /* \"programa/MulticontractWallet/UserWallet.sol\":1088:1105  _approveedAddress */\n      dup2\n        /* \"programa/MulticontractWallet/UserWallet.sol\":1072:1106  ApprovedAddress(_approveedAddress) */\n      mload(0x40)\n      tag_89\n      swap2\n      swap1\n      tag_36\n      jump\t// in\n    tag_89:\n      mload(0x40)\n      dup1\n      swap2\n      sub\n      swap1\n      log1\n        /* \"programa/MulticontractWallet/UserWallet.sol\":908:1114  function approveAddress(address _approveedAddress) public OnlyOwner {... */\n      pop\n      jump\t// out\n        /* \"programa/MulticontractWallet/UserWallet.sol\":180:215  IAccessManager public accessManager */\n    tag_45:\n      0x01\n      0x00\n      swap1\n      sload\n      swap1\n      0x0100\n      exp\n      swap1\n      div\n      0xffffffffffffffffffffffffffffffffffffffff\n      and\n      dup2\n      jump\t// out\n        /* \"#utility.yul\":7:176   */\n    tag_90:\n        /* \"#utility.yul\":91:102   */\n      0x00\n        /* \"#utility.yul\":125:131   */\n      dup3\n        /* \"#utility.yul\":120:123   */\n      dup3\n        /* \"#utility.yul\":113:132   */\n      mstore\n        /* \"#utility.yul\":165:169   */\n      0x20\n        /* \"#utility.yul\":160:163   */\n      dup3\n        /* \"#utility.yul\":156:170   */\n      add\n        /* \"#utility.yul\":141:170   */\n      swap1\n      pop\n        /* \"#utility.yul\":7:176   */\n      swap3\n      swap2\n      pop\n      pop\n      jump\t// out\n        /* \"#utility.yul\":182:343   */\n    tag_91:\n        /* \"#utility.yul\":322:335   */\n      0x4e6f204554482073656e74000000000000000000000000000000000000000000\n        /* \"#utility.yul\":318:319   */\n      0x00\n        /* \"#utility.yul\":310:316   */\n      dup3\n        /* \"#utility.yul\":306:320   */\n      add\n        /* \"#utility.yul\":299:336   */\n      mstore\n        /* \"#utility.yul\":182:343   */\n      pop\n      jump\t// out\n        /* \"#utility.yul\":349:715   */\n    tag_92:\n        /* \"#utility.yul\":491:494   */\n      0x00\n        /* \"#utility.yul\":512:579   */\n      tag_129\n        /* \"#utility.yul\":576:578   */\n      0x0b\n        /* \"#utility.yul\":571:574   */\n      dup4\n        /* \"#utility.yul\":512:579   */\n      tag_90\n      jump\t// in\n    tag_129:\n        /* \"#utility.yul\":505:579   */\n      swap2\n      pop\n        /* \"#utility.yul\":588:681   */\n      tag_130\n        /* \"#utility.yul\":677:680   */\n      dup3\n        /* \"#utility.yul\":588:681   */\n      tag_91\n      jump\t// in\n    tag_130:\n        /* \"#utility.yul\":706:708   */\n      0x20\n        /* \"#utility.yul\":701:704   */\n      dup3\n        /* \"#utility.yul\":697:709   */\n      add\n        /* \"#utility.yul\":690:709   */\n      swap1\n      pop\n        /* \"#utility.yul\":349:715   */\n      swap2\n      swap1\n      pop\n      jump\t// out\n        /* \"#utility.yul\":721:1140   */\n    tag_13:\n        /* \"#utility.yul\":887:891   */\n      0x00\n        /* \"#utility.yul\":925:927   */\n      0x20\n        /* \"#utility.yul\":914:923   */\n      dup3\n        /* \"#utility.yul\":910:928   */\n      add\n        /* \"#utility.yul\":902:928   */\n      swap1\n      pop\n        /* \"#utility.yul\":974:983   */\n      dup2\n        /* \"#utility.yul\":968:972   */\n      dup2\n        /* \"#utility.yul\":964:984   */\n      sub\n        /* \"#utility.yul\":960:961   */\n      0x00\n        /* \"#utility.yul\":949:958   */\n      dup4\n        /* \"#utility.yul\":945:962   */\n      add\n        /* \"#utility.yul\":938:985   */\n      mstore\n        /* \"#utility.yul\":1002:1133   */\n      tag_132\n        /* \"#utility.yul\":1128:1132   */\n      dup2\n        /* \"#utility.yul\":1002:1133   */\n      tag_92\n      jump\t// in\n    tag_132:\n        /* \"#utility.yul\":994:1133   */\n      swap1\n      pop\n        /* \"#utility.yul\":721:1140   */\n      swap2\n      swap1\n      pop\n      jump\t// out\n        /* \"#utility.yul\":1146:1272   */\n    tag_93:\n        /* \"#utility.yul\":1183:1190   */\n      0x00\n        /* \"#utility.yul\":1223:1265   */\n      0xffffffffffffffffffffffffffffffffffffffff\n        /* \"#utility.yul\":1216:1221   */\n      dup3\n        /* \"#utility.yul\":1212:1266   */\n      and\n        /* \"#utility.yul\":1201:1266   */\n      swap1\n      pop\n        /* \"#utility.yul\":1146:1272   */\n      swap2\n      swap1\n      pop\n      jump\t// out\n        /* \"#utility.yul\":1278:1374   */\n    tag_94:\n        /* \"#utility.yul\":1315:1322   */\n      0x00\n        /* \"#utility.yul\":1344:1368   */\n      tag_135\n        /* \"#utility.yul\":1362:1367   */\n      dup3\n        /* \"#utility.yul\":1344:1368   */\n      tag_93\n      jump\t// in\n    tag_135:\n        /* \"#utility.yul\":1333:1368   */\n      swap1\n      pop\n        /* \"#utility.yul\":1278:1374   */\n      swap2\n      swap1\n      pop\n      jump\t// out\n        /* \"#utility.yul\":1380:1498   */\n    tag_95:\n        /* \"#utility.yul\":1467:1491   */\n      tag_137\n        /* \"#utility.yul\":1485:1490   */\n      dup2\n        /* \"#utility.yul\":1467:1491   */\n      tag_94\n      jump\t// in\n    tag_137:\n        /* \"#utility.yul\":1462:1465   */\n      dup3\n        /* \"#utility.yul\":1455:1492   */\n      mstore\n        /* \"#utility.yul\":1380:1498   */\n      pop\n      pop\n      jump\t// out\n        /* \"#utility.yul\":1504:1581   */\n    tag_96:\n        /* \"#utility.yul\":1541:1548   */\n      0x00\n        /* \"#utility.yul\":1570:1575   */\n      dup2\n        /* \"#utility.yul\":1559:1575   */\n      swap1\n      pop\n        /* \"#utility.yul\":1504:1581   */\n      swap2\n      swap1\n      pop\n      jump\t// out\n        /* \"#utility.yul\":1587:1705   */\n    tag_97:\n        /* \"#utility.yul\":1674:1698   */\n      tag_140\n        /* \"#utility.yul\":1692:1697   */\n      dup2\n        /* \"#utility.yul\":1674:1698   */\n      tag_96\n      jump\t// in\n    tag_140:\n        /* \"#utility.yul\":1669:1672   */\n      dup3\n        /* \"#utility.yul\":1662:1699   */\n      mstore\n        /* \"#utility.yul\":1587:1705   */\n      pop\n      pop\n      jump\t// out\n        /* \"#utility.yul\":1711:2043   */\n    tag_15:\n        /* \"#utility.yul\":1832:1836   */\n      0x00\n        /* \"#utility.yul\":1870:1872   */\n      0x40\n        /* \"#utility.yul\":1859:1868   */\n      dup3\n        /* \"#utility.yul\":1855:1873   */\n      add\n        /* \"#utility.yul\":1847:1873   */\n      swap1\n      pop\n        /* \"#utility.yul\":1883:1954   */\n      tag_142\n        /* \"#utility.yul\":1951:1952   */\n      0x00\n        /* \"#utility.yul\":1940:1949   */\n      dup4\n        /* \"#utility.yul\":1936:1953   */\n      add\n        /* \"#utility.yul\":1927:1933   */\n      dup6\n        /* \"#utility.yul\":1883:1954   */\n      tag_95\n      jump\t// in\n    tag_142:\n        /* \"#utility.yul\":1964:2036   */\n      tag_143\n        /* \"#utility.yul\":2032:2034   */\n      0x20\n        /* \"#utility.yul\":2021:2030   */\n      dup4\n        /* \"#utility.yul\":2017:2035   */\n      add\n        /* \"#utility.yul\":2008:2014   */\n      dup5\n        /* \"#utility.yul\":1964:2036   */\n      tag_97\n      jump\t// in\n    tag_143:\n        /* \"#utility.yul\":1711:2043   */\n      swap4\n      swap3\n      pop\n      pop\n      pop\n      jump\t// out\n        /* \"#utility.yul\":2049:2228   */\n    tag_98:\n        /* \"#utility.yul\":2189:2220   */\n      0x46616c6c6261636b2063616c6c656420776974686f75742076616c7565000000\n        /* \"#utility.yul\":2185:2186   */\n      0x00\n        /* \"#utility.yul\":2177:2183   */\n      dup3\n        /* \"#utility.yul\":2173:2187   */\n      add\n        /* \"#utility.yul\":2166:2221   */\n      mstore\n        /* \"#utility.yul\":2049:2228   */\n      pop\n      jump\t// out\n        /* \"#utility.yul\":2234:2600   */\n    tag_99:\n        /* \"#utility.yul\":2376:2379   */\n      0x00\n        /* \"#utility.yul\":2397:2464   */\n      tag_146\n        /* \"#utility.yul\":2461:2463   */\n      0x1d\n        /* \"#utility.yul\":2456:2459   */\n      dup4\n        /* \"#utility.yul\":2397:2464   */\n      tag_90\n      jump\t// in\n    tag_146:\n        /* \"#utility.yul\":2390:2464   */\n      swap2\n      pop\n        /* \"#utility.yul\":2473:2566   */\n      tag_147\n        /* \"#utility.yul\":2562:2565   */\n      dup3\n        /* \"#utility.yul\":2473:2566   */\n      tag_98\n      jump\t// in\n    tag_147:\n        /* \"#utility.yul\":2591:2593   */\n      0x20\n        /* \"#utility.yul\":2586:2589   */\n      dup3\n        /* \"#utility.yul\":2582:2594   */\n      add\n        /* \"#utility.yul\":2575:2594   */\n      swap1\n      pop\n        /* \"#utility.yul\":2234:2600   */\n      swap2\n      swap1\n      pop\n      jump\t// out\n        /* \"#utility.yul\":2606:3025   */\n    tag_20:\n        /* \"#utility.yul\":2772:2776   */\n      0x00\n        /* \"#utility.yul\":2810:2812   */\n      0x20\n        /* \"#utility.yul\":2799:2808   */\n      dup3\n        /* \"#utility.yul\":2795:2813   */\n      add\n        /* \"#utility.yul\":2787:2813   */\n      swap1\n      pop\n        /* \"#utility.yul\":2859:2868   */\n      dup2\n        /* \"#utility.yul\":2853:2857   */\n      dup2\n        /* \"#utility.yul\":2849:2869   */\n      sub\n        /* \"#utility.yul\":2845:2846   */\n      0x00\n        /* \"#utility.yul\":2834:2843   */\n      dup4\n        /* \"#utility.yul\":2830:2847   */\n      add\n        /* \"#utility.yul\":2823:2870   */\n      mstore\n        /* \"#utility.yul\":2887:3018   */\n      tag_149\n        /* \"#utility.yul\":3013:3017   */\n      dup2\n        /* \"#utility.yul\":2887:3018   */\n      tag_99\n      jump\t// in\n    tag_149:\n        /* \"#utility.yul\":2879:3018   */\n      swap1\n      pop\n        /* \"#utility.yul\":2606:3025   */\n      swap2\n      swap1\n      pop\n      jump\t// out\n        /* \"#utility.yul\":3112:3229   */\n    tag_101:\n        /* \"#utility.yul\":3221:3222   */\n      0x00\n        /* \"#utility.yul\":3218:3219   */\n      dup1\n        /* \"#utility.yul\":3211:3223   */\n      revert\n        /* \"#utility.yul\":3358:3480   */\n    tag_103:\n        /* \"#utility.yul\":3431:3455   */\n      tag_154\n        /* \"#utility.yul\":3449:3454   */\n      dup2\n        /* \"#utility.yul\":3431:3455   */\n      tag_96\n      jump\t// in\n    tag_154:\n        /* \"#utility.yul\":3424:3429   */\n      dup2\n        /* \"#utility.yul\":3421:3456   */\n      eq\n        /* \"#utility.yul\":3411:3474   */\n      tag_155\n      jumpi\n        /* \"#utility.yul\":3470:3471   */\n      0x00\n        /* \"#utility.yul\":3467:3468   */\n      dup1\n        /* \"#utility.yul\":3460:3472   */\n      revert\n        /* \"#utility.yul\":3411:3474   */\n    tag_155:\n        /* \"#utility.yul\":3358:3480   */\n      pop\n      jump\t// out\n        /* \"#utility.yul\":3486:3625   */\n    tag_104:\n        /* \"#utility.yul\":3532:3537   */\n      0x00\n        /* \"#utility.yul\":3570:3576   */\n      dup2\n        /* \"#utility.yul\":3557:3577   */\n      calldataload\n        /* \"#utility.yul\":3548:3577   */\n      swap1\n      pop\n        /* \"#utility.yul\":3586:3619   */\n      tag_157\n        /* \"#utility.yul\":3613:3618   */\n      dup2\n        /* \"#utility.yul\":3586:3619   */\n      tag_103\n      jump\t// in\n    tag_157:\n        /* \"#utility.yul\":3486:3625   */\n      swap3\n      swap2\n      pop\n      pop\n      jump\t// out\n        /* \"#utility.yul\":3631:3960   */\n    tag_25:\n        /* \"#utility.yul\":3690:3696   */\n      0x00\n        /* \"#utility.yul\":3739:3741   */\n      0x20\n        /* \"#utility.yul\":3727:3736   */\n      dup3\n        /* \"#utility.yul\":3718:3725   */\n      dup5\n        /* \"#utility.yul\":3714:3737   */\n      sub\n        /* \"#utility.yul\":3710:3742   */\n      slt\n        /* \"#utility.yul\":3707:3826   */\n      iszero\n      tag_159\n      jumpi\n        /* \"#utility.yul\":3745:3824   */\n      tag_160\n      tag_101\n      jump\t// in\n    tag_160:\n        /* \"#utility.yul\":3707:3826   */\n    tag_159:\n        /* \"#utility.yul\":3865:3866   */\n      0x00\n        /* \"#utility.yul\":3890:3943   */\n      tag_161\n        /* \"#utility.yul\":3935:3942   */\n      dup5\n        /* \"#utility.yul\":3926:3932   */\n      dup3\n        /* \"#utility.yul\":3915:3924   */\n      dup6\n        /* \"#utility.yul\":3911:3933   */\n      add\n        /* \"#utility.yul\":3890:3943   */\n      tag_104\n      jump\t// in\n    tag_161:\n        /* \"#utility.yul\":3880:3943   */\n      swap2\n      pop\n        /* \"#utility.yul\":3836:3953   */\n      pop\n        /* \"#utility.yul\":3631:3960   */\n      swap3\n      swap2\n      pop\n      pop\n      jump\t// out\n        /* \"#utility.yul\":3966:4088   */\n    tag_105:\n        /* \"#utility.yul\":4039:4063   */\n      tag_163\n        /* \"#utility.yul\":4057:4062   */\n      dup2\n        /* \"#utility.yul\":4039:4063   */\n      tag_94\n      jump\t// in\n    tag_163:\n        /* \"#utility.yul\":4032:4037   */\n      dup2\n        /* \"#utility.yul\":4029:4064   */\n      eq\n        /* \"#utility.yul\":4019:4082   */\n      tag_164\n      jumpi\n        /* \"#utility.yul\":4078:4079   */\n      0x00\n        /* \"#utility.yul\":4075:4076   */\n      dup1\n        /* \"#utility.yul\":4068:4080   */\n      revert\n        /* \"#utility.yul\":4019:4082   */\n    tag_164:\n        /* \"#utility.yul\":3966:4088   */\n      pop\n      jump\t// out\n        /* \"#utility.yul\":4094:4233   */\n    tag_106:\n        /* \"#utility.yul\":4140:4145   */\n      0x00\n        /* \"#utility.yul\":4178:4184   */\n      dup2\n        /* \"#utility.yul\":4165:4185   */\n      calldataload\n        /* \"#utility.yul\":4156:4185   */\n      swap1\n      pop\n        /* \"#utility.yul\":4194:4227   */\n      tag_166\n        /* \"#utility.yul\":4221:4226   */\n      dup2\n        /* \"#utility.yul\":4194:4227   */\n      tag_105\n      jump\t// in\n    tag_166:\n        /* \"#utility.yul\":4094:4233   */\n      swap3\n      swap2\n      pop\n      pop\n      jump\t// out\n        /* \"#utility.yul\":4239:4568   */\n    tag_30:\n        /* \"#utility.yul\":4298:4304   */\n      0x00\n        /* \"#utility.yul\":4347:4349   */\n      0x20\n        /* \"#utility.yul\":4335:4344   */\n      dup3\n        /* \"#utility.yul\":4326:4333   */\n      dup5\n        /* \"#utility.yul\":4322:4345   */\n      sub\n        /* \"#utility.yul\":4318:4350   */\n      slt\n        /* \"#utility.yul\":4315:4434   */\n      iszero\n      tag_168\n      jumpi\n        /* \"#utility.yul\":4353:4432   */\n      tag_169\n      tag_101\n      jump\t// in\n    tag_169:\n        /* \"#utility.yul\":4315:4434   */\n    tag_168:\n        /* \"#utility.yul\":4473:4474   */\n      0x00\n        /* \"#utility.yul\":4498:4551   */\n      tag_170\n        /* \"#utility.yul\":4543:4550   */\n      dup5\n        /* \"#utility.yul\":4534:4540   */\n      dup3\n        /* \"#utility.yul\":4523:4532   */\n      dup6\n        /* \"#utility.yul\":4519:4541   */\n      add\n        /* \"#utility.yul\":4498:4551   */\n      tag_106\n      jump\t// in\n    tag_170:\n        /* \"#utility.yul\":4488:4551   */\n      swap2\n      pop\n        /* \"#utility.yul\":4444:4561   */\n      pop\n        /* \"#utility.yul\":4239:4568   */\n      swap3\n      swap2\n      pop\n      pop\n      jump\t// out\n        /* \"#utility.yul\":4574:4796   */\n    tag_36:\n        /* \"#utility.yul\":4667:4671   */\n      0x00\n        /* \"#utility.yul\":4705:4707   */\n      0x20\n        /* \"#utility.yul\":4694:4703   */\n      dup3\n        /* \"#utility.yul\":4690:4708   */\n      add\n        /* \"#utility.yul\":4682:4708   */\n      swap1\n      pop\n        /* \"#utility.yul\":4718:4789   */\n      tag_172\n        /* \"#utility.yul\":4786:4787   */\n      0x00\n        /* \"#utility.yul\":4775:4784   */\n      dup4\n        /* \"#utility.yul\":4771:4788   */\n      add\n        /* \"#utility.yul\":4762:4768   */\n      dup5\n        /* \"#utility.yul\":4718:4789   */\n      tag_95\n      jump\t// in\n    tag_172:\n        /* \"#utility.yul\":4574:4796   */\n      swap3\n      swap2\n      pop\n      pop\n      jump\t// out\n        /* \"#utility.yul\":4802:4862   */\n    tag_107:\n        /* \"#utility.yul\":4830:4833   */\n      0x00\n        /* \"#utility.yul\":4851:4856   */\n      dup2\n        /* \"#utility.yul\":4844:4856   */\n      swap1\n      pop\n        /* \"#utility.yul\":4802:4862   */\n      swap2\n      swap1\n      pop\n      jump\t// out\n        /* \"#utility.yul\":4868:5010   */\n    tag_108:\n        /* \"#utility.yul\":4918:4927   */\n      0x00\n        /* \"#utility.yul\":4951:5004   */\n      tag_175\n        /* \"#utility.yul\":4969:5003   */\n      tag_176\n        /* \"#utility.yul\":4978:5002   */\n      tag_177\n        /* \"#utility.yul\":4996:5001   */\n      dup5\n        /* \"#utility.yul\":4978:5002   */\n      tag_93\n      jump\t// in\n    tag_177:\n        /* \"#utility.yul\":4969:5003   */\n      tag_107\n      jump\t// in\n    tag_176:\n        /* \"#utility.yul\":4951:5004   */\n      tag_93\n      jump\t// in\n    tag_175:\n        /* \"#utility.yul\":4938:5004   */\n      swap1\n      pop\n        /* \"#utility.yul\":4868:5010   */\n      swap2\n      swap1\n      pop\n      jump\t// out\n        /* \"#utility.yul\":5016:5142   */\n    tag_109:\n        /* \"#utility.yul\":5066:5075   */\n      0x00\n        /* \"#utility.yul\":5099:5136   */\n      tag_179\n        /* \"#utility.yul\":5130:5135   */\n      dup3\n        /* \"#utility.yul\":5099:5136   */\n      tag_108\n      jump\t// in\n    tag_179:\n        /* \"#utility.yul\":5086:5136   */\n      swap1\n      pop\n        /* \"#utility.yul\":5016:5142   */\n      swap2\n      swap1\n      pop\n      jump\t// out\n        /* \"#utility.yul\":5148:5296   */\n    tag_110:\n        /* \"#utility.yul\":5220:5229   */\n      0x00\n        /* \"#utility.yul\":5253:5290   */\n      tag_181\n        /* \"#utility.yul\":5284:5289   */\n      dup3\n        /* \"#utility.yul\":5253:5290   */\n      tag_109\n      jump\t// in\n    tag_181:\n        /* \"#utility.yul\":5240:5290   */\n      swap1\n      pop\n        /* \"#utility.yul\":5148:5296   */\n      swap2\n      swap1\n      pop\n      jump\t// out\n        /* \"#utility.yul\":5302:5477   */\n    tag_111:\n        /* \"#utility.yul\":5411:5470   */\n      tag_183\n        /* \"#utility.yul\":5464:5469   */\n      dup2\n        /* \"#utility.yul\":5411:5470   */\n      tag_110\n      jump\t// in\n    tag_183:\n        /* \"#utility.yul\":5406:5409   */\n      dup3\n        /* \"#utility.yul\":5399:5471   */\n      mstore\n        /* \"#utility.yul\":5302:5477   */\n      pop\n      pop\n      jump\t// out\n        /* \"#utility.yul\":5483:5749   */\n    tag_47:\n        /* \"#utility.yul\":5598:5602   */\n      0x00\n        /* \"#utility.yul\":5636:5638   */\n      0x20\n        /* \"#utility.yul\":5625:5634   */\n      dup3\n        /* \"#utility.yul\":5621:5639   */\n      add\n        /* \"#utility.yul\":5613:5639   */\n      swap1\n      pop\n        /* \"#utility.yul\":5649:5742   */\n      tag_185\n        /* \"#utility.yul\":5739:5740   */\n      0x00\n        /* \"#utility.yul\":5728:5737   */\n      dup4\n        /* \"#utility.yul\":5724:5741   */\n      add\n        /* \"#utility.yul\":5715:5721   */\n      dup5\n        /* \"#utility.yul\":5649:5742   */\n      tag_111\n      jump\t// in\n    tag_185:\n        /* \"#utility.yul\":5483:5749   */\n      swap3\n      swap2\n      pop\n      pop\n      jump\t// out\n        /* \"#utility.yul\":5755:6087   */\n    tag_50:\n        /* \"#utility.yul\":5876:5880   */\n      0x00\n        /* \"#utility.yul\":5914:5916   */\n      0x40\n        /* \"#utility.yul\":5903:5912   */\n      dup3\n        /* \"#utility.yul\":5899:5917   */\n      add\n        /* \"#utility.yul\":5891:5917   */\n      swap1\n      pop\n        /* \"#utility.yul\":5927:5998   */\n      tag_187\n        /* \"#utility.yul\":5995:5996   */\n      0x00\n        /* \"#utility.yul\":5984:5993   */\n      dup4\n        /* \"#utility.yul\":5980:5997   */\n      add\n        /* \"#utility.yul\":5971:5977   */\n      dup6\n        /* \"#utility.yul\":5927:5998   */\n      tag_95\n      jump\t// in\n    tag_187:\n        /* \"#utility.yul\":6008:6080   */\n      tag_188\n        /* \"#utility.yul\":6076:6078   */\n      0x20\n        /* \"#utility.yul\":6065:6074   */\n      dup4\n        /* \"#utility.yul\":6061:6079   */\n      add\n        /* \"#utility.yul\":6052:6058   */\n      dup5\n        /* \"#utility.yul\":6008:6080   */\n      tag_95\n      jump\t// in\n    tag_188:\n        /* \"#utility.yul\":5755:6087   */\n      swap4\n      swap3\n      pop\n      pop\n      pop\n      jump\t// out\n        /* \"#utility.yul\":6093:6183   */\n    tag_112:\n        /* \"#utility.yul\":6127:6134   */\n      0x00\n        /* \"#utility.yul\":6170:6175   */\n      dup2\n        /* \"#utility.yul\":6163:6176   */\n      iszero\n        /* \"#utility.yul\":6156:6177   */\n      iszero\n        /* \"#utility.yul\":6145:6177   */\n      swap1\n      pop\n        /* \"#utility.yul\":6093:6183   */\n      swap2\n      swap1\n      pop\n      jump\t// out\n        /* \"#utility.yul\":6189:6305   */\n    tag_113:\n        /* \"#utility.yul\":6259:6280   */\n      tag_191\n        /* \"#utility.yul\":6274:6279   */\n      dup2\n        /* \"#utility.yul\":6259:6280   */\n      tag_112\n      jump\t// in\n    tag_191:\n        /* \"#utility.yul\":6252:6257   */\n      dup2\n        /* \"#utility.yul\":6249:6281   */\n      eq\n        /* \"#utility.yul\":6239:6299   */\n      tag_192\n      jumpi\n        /* \"#utility.yul\":6295:6296   */\n      0x00\n        /* \"#utility.yul\":6292:6293   */\n      dup1\n        /* \"#utility.yul\":6285:6297   */\n      revert\n        /* \"#utility.yul\":6239:6299   */\n    tag_192:\n        /* \"#utility.yul\":6189:6305   */\n      pop\n      jump\t// out\n        /* \"#utility.yul\":6311:6448   */\n    tag_114:\n        /* \"#utility.yul\":6365:6370   */\n      0x00\n        /* \"#utility.yul\":6396:6402   */\n      dup2\n        /* \"#utility.yul\":6390:6403   */\n      mload\n        /* \"#utility.yul\":6381:6403   */\n      swap1\n      pop\n        /* \"#utility.yul\":6412:6442   */\n      tag_194\n        /* \"#utility.yul\":6436:6441   */\n      dup2\n        /* \"#utility.yul\":6412:6442   */\n      tag_113\n      jump\t// in\n    tag_194:\n        /* \"#utility.yul\":6311:6448   */\n      swap3\n      swap2\n      pop\n      pop\n      jump\t// out\n        /* \"#utility.yul\":6454:6799   */\n    tag_54:\n        /* \"#utility.yul\":6521:6527   */\n      0x00\n        /* \"#utility.yul\":6570:6572   */\n      0x20\n        /* \"#utility.yul\":6558:6567   */\n      dup3\n        /* \"#utility.yul\":6549:6556   */\n      dup5\n        /* \"#utility.yul\":6545:6568   */\n      sub\n        /* \"#utility.yul\":6541:6573   */\n      slt\n        /* \"#utility.yul\":6538:6657   */\n      iszero\n      tag_196\n      jumpi\n        /* \"#utility.yul\":6576:6655   */\n      tag_197\n      tag_101\n      jump\t// in\n    tag_197:\n        /* \"#utility.yul\":6538:6657   */\n    tag_196:\n        /* \"#utility.yul\":6696:6697   */\n      0x00\n        /* \"#utility.yul\":6721:6782   */\n      tag_198\n        /* \"#utility.yul\":6774:6781   */\n      dup5\n        /* \"#utility.yul\":6765:6771   */\n      dup3\n        /* \"#utility.yul\":6754:6763   */\n      dup6\n        /* \"#utility.yul\":6750:6772   */\n      add\n        /* \"#utility.yul\":6721:6782   */\n      tag_114\n      jump\t// in\n    tag_198:\n        /* \"#utility.yul\":6711:6782   */\n      swap2\n      pop\n        /* \"#utility.yul\":6667:6792   */\n      pop\n        /* \"#utility.yul\":6454:6799   */\n      swap3\n      swap2\n      pop\n      pop\n      jump\t// out\n        /* \"#utility.yul\":6805:7038   */\n    tag_115:\n        /* \"#utility.yul\":6945:6979   */\n      0x5468652073656e64657220646f6573206e6f7420686176652074686520726571\n        /* \"#utility.yul\":6941:6942   */\n      0x00\n        /* \"#utility.yul\":6933:6939   */\n      dup3\n        /* \"#utility.yul\":6929:6943   */\n      add\n        /* \"#utility.yul\":6922:6980   */\n      mstore\n        /* \"#utility.yul\":7014:7030   */\n      0x756972656420617070726f76616c000000000000000000000000000000000000\n        /* \"#utility.yul\":7009:7011   */\n      0x20\n        /* \"#utility.yul\":7001:7007   */\n      dup3\n        /* \"#utility.yul\":6997:7012   */\n      add\n        /* \"#utility.yul\":6990:7031   */\n      mstore\n        /* \"#utility.yul\":6805:7038   */\n      pop\n      jump\t// out\n        /* \"#utility.yul\":7044:7410   */\n    tag_116:\n        /* \"#utility.yul\":7186:7189   */\n      0x00\n        /* \"#utility.yul\":7207:7274   */\n      tag_201\n        /* \"#utility.yul\":7271:7273   */\n      0x2e\n        /* \"#utility.yul\":7266:7269   */\n      dup4\n        /* \"#utility.yul\":7207:7274   */\n      tag_90\n      jump\t// in\n    tag_201:\n        /* \"#utility.yul\":7200:7274   */\n      swap2\n      pop\n        /* \"#utility.yul\":7283:7376   */\n      tag_202\n        /* \"#utility.yul\":7372:7375   */\n      dup3\n        /* \"#utility.yul\":7283:7376   */\n      tag_115\n      jump\t// in\n    tag_202:\n        /* \"#utility.yul\":7401:7403   */\n      0x40\n        /* \"#utility.yul\":7396:7399   */\n      dup3\n        /* \"#utility.yul\":7392:7404   */\n      add\n        /* \"#utility.yul\":7385:7404   */\n      swap1\n      pop\n        /* \"#utility.yul\":7044:7410   */\n      swap2\n      swap1\n      pop\n      jump\t// out\n        /* \"#utility.yul\":7416:7835   */\n    tag_57:\n        /* \"#utility.yul\":7582:7586   */\n      0x00\n        /* \"#utility.yul\":7620:7622   */\n      0x20\n        /* \"#utility.yul\":7609:7618   */\n      dup3\n        /* \"#utility.yul\":7605:7623   */\n      add\n        /* \"#utility.yul\":7597:7623   */\n      swap1\n      pop\n        /* \"#utility.yul\":7669:7678   */\n      dup2\n        /* \"#utility.yul\":7663:7667   */\n      dup2\n        /* \"#utility.yul\":7659:7679   */\n      sub\n        /* \"#utility.yul\":7655:7656   */\n      0x00\n        /* \"#utility.yul\":7644:7653   */\n      dup4\n        /* \"#utility.yul\":7640:7657   */\n      add\n        /* \"#utility.yul\":7633:7680   */\n      mstore\n        /* \"#utility.yul\":7697:7828   */\n      tag_204\n        /* \"#utility.yul\":7823:7827   */\n      dup2\n        /* \"#utility.yul\":7697:7828   */\n      tag_116\n      jump\t// in\n    tag_204:\n        /* \"#utility.yul\":7689:7828   */\n      swap1\n      pop\n        /* \"#utility.yul\":7416:7835   */\n      swap2\n      swap1\n      pop\n      jump\t// out\n        /* \"#utility.yul\":7841:7988   */\n    tag_117:\n        /* \"#utility.yul\":7942:7953   */\n      0x00\n        /* \"#utility.yul\":7979:7982   */\n      dup2\n        /* \"#utility.yul\":7964:7982   */\n      swap1\n      pop\n        /* \"#utility.yul\":7841:7988   */\n      swap3\n      swap2\n      pop\n      pop\n      jump\t// out\n        /* \"#utility.yul\":7994:8108   */\n    tag_118:\n      pop\n      jump\t// out\n        /* \"#utility.yul\":8114:8512   */\n    tag_119:\n        /* \"#utility.yul\":8273:8276   */\n      0x00\n        /* \"#utility.yul\":8294:8377   */\n      tag_208\n        /* \"#utility.yul\":8375:8376   */\n      0x00\n        /* \"#utility.yul\":8370:8373   */\n      dup4\n        /* \"#utility.yul\":8294:8377   */\n      tag_117\n      jump\t// in\n    tag_208:\n        /* \"#utility.yul\":8287:8377   */\n      swap2\n      pop\n        /* \"#utility.yul\":8386:8479   */\n      tag_209\n        /* \"#utility.yul\":8475:8478   */\n      dup3\n        /* \"#utility.yul\":8386:8479   */\n      tag_118\n      jump\t// in\n    tag_209:\n        /* \"#utility.yul\":8504:8505   */\n      0x00\n        /* \"#utility.yul\":8499:8502   */\n      dup3\n        /* \"#utility.yul\":8495:8506   */\n      add\n        /* \"#utility.yul\":8488:8506   */\n      swap1\n      pop\n        /* \"#utility.yul\":8114:8512   */\n      swap2\n      swap1\n      pop\n      jump\t// out\n        /* \"#utility.yul\":8518:8897   */\n    tag_60:\n        /* \"#utility.yul\":8702:8705   */\n      0x00\n        /* \"#utility.yul\":8724:8871   */\n      tag_211\n        /* \"#utility.yul\":8867:8870   */\n      dup3\n        /* \"#utility.yul\":8724:8871   */\n      tag_119\n      jump\t// in\n    tag_211:\n        /* \"#utility.yul\":8717:8871   */\n      swap2\n      pop\n        /* \"#utility.yul\":8888:8891   */\n      dup2\n        /* \"#utility.yul\":8881:8891   */\n      swap1\n      pop\n        /* \"#utility.yul\":8518:8897   */\n      swap2\n      swap1\n      pop\n      jump\t// out\n        /* \"#utility.yul\":8903:9067   */\n    tag_120:\n        /* \"#utility.yul\":9043:9059   */\n      0x5769746864726177206572726f72000000000000000000000000000000000000\n        /* \"#utility.yul\":9039:9040   */\n      0x00\n        /* \"#utility.yul\":9031:9037   */\n      dup3\n        /* \"#utility.yul\":9027:9041   */\n      add\n        /* \"#utility.yul\":9020:9060   */\n      mstore\n        /* \"#utility.yul\":8903:9067   */\n      pop\n      jump\t// out\n        /* \"#utility.yul\":9073:9439   */\n    tag_121:\n        /* \"#utility.yul\":9215:9218   */\n      0x00\n        /* \"#utility.yul\":9236:9303   */\n      tag_214\n        /* \"#utility.yul\":9300:9302   */\n      0x0e\n        /* \"#utility.yul\":9295:9298   */\n      dup4\n        /* \"#utility.yul\":9236:9303   */\n      tag_90\n      jump\t// in\n    tag_214:\n        /* \"#utility.yul\":9229:9303   */\n      swap2\n      pop\n        /* \"#utility.yul\":9312:9405   */\n      tag_215\n        /* \"#utility.yul\":9401:9404   */\n      dup3\n        /* \"#utility.yul\":9312:9405   */\n      tag_120\n      jump\t// in\n    tag_215:\n        /* \"#utility.yul\":9430:9432   */\n      0x20\n        /* \"#utility.yul\":9425:9428   */\n      dup3\n        /* \"#utility.yul\":9421:9433   */\n      add\n        /* \"#utility.yul\":9414:9433   */\n      swap1\n      pop\n        /* \"#utility.yul\":9073:9439   */\n      swap2\n      swap1\n      pop\n      jump\t// out\n        /* \"#utility.yul\":9445:9864   */\n    tag_66:\n        /* \"#utility.yul\":9611:9615   */\n      0x00\n        /* \"#utility.yul\":9649:9651   */\n      0x20\n        /* \"#utility.yul\":9638:9647   */\n      dup3\n        /* \"#utility.yul\":9634:9652   */\n      add\n        /* \"#utility.yul\":9626:9652   */\n      swap1\n      pop\n        /* \"#utility.yul\":9698:9707   */\n      dup2\n        /* \"#utility.yul\":9692:9696   */\n      dup2\n        /* \"#utility.yul\":9688:9708   */\n      sub\n        /* \"#utility.yul\":9684:9685   */\n      0x00\n        /* \"#utility.yul\":9673:9682   */\n      dup4\n        /* \"#utility.yul\":9669:9686   */\n      add\n        /* \"#utility.yul\":9662:9709   */\n      mstore\n        /* \"#utility.yul\":9726:9857   */\n      tag_217\n        /* \"#utility.yul\":9852:9856   */\n      dup2\n        /* \"#utility.yul\":9726:9857   */\n      tag_121\n      jump\t// in\n    tag_217:\n        /* \"#utility.yul\":9718:9857   */\n      swap1\n      pop\n        /* \"#utility.yul\":9445:9864   */\n      swap2\n      swap1\n      pop\n      jump\t// out\n        /* \"#utility.yul\":9870:10041   */\n    tag_122:\n        /* \"#utility.yul\":10010:10033   */\n      0x596f7520617265206e6f7420746865206f776e65720000000000000000000000\n        /* \"#utility.yul\":10006:10007   */\n      0x00\n        /* \"#utility.yul\":9998:10004   */\n      dup3\n        /* \"#utility.yul\":9994:10008   */\n      add\n        /* \"#utility.yul\":9987:10034   */\n      mstore\n        /* \"#utility.yul\":9870:10041   */\n      pop\n      jump\t// out\n        /* \"#utility.yul\":10047:10413   */\n    tag_123:\n        /* \"#utility.yul\":10189:10192   */\n      0x00\n        /* \"#utility.yul\":10210:10277   */\n      tag_220\n        /* \"#utility.yul\":10274:10276   */\n      0x15\n        /* \"#utility.yul\":10269:10272   */\n      dup4\n        /* \"#utility.yul\":10210:10277   */\n      tag_90\n      jump\t// in\n    tag_220:\n        /* \"#utility.yul\":10203:10277   */\n      swap2\n      pop\n        /* \"#utility.yul\":10286:10379   */\n      tag_221\n        /* \"#utility.yul\":10375:10378   */\n      dup3\n        /* \"#utility.yul\":10286:10379   */\n      tag_122\n      jump\t// in\n    tag_221:\n        /* \"#utility.yul\":10404:10406   */\n      0x20\n        /* \"#utility.yul\":10399:10402   */\n      dup3\n        /* \"#utility.yul\":10395:10407   */\n      add\n        /* \"#utility.yul\":10388:10407   */\n      swap1\n      pop\n        /* \"#utility.yul\":10047:10413   */\n      swap2\n      swap1\n      pop\n      jump\t// out\n        /* \"#utility.yul\":10419:10838   */\n    tag_71:\n        /* \"#utility.yul\":10585:10589   */\n      0x00\n        /* \"#utility.yul\":10623:10625   */\n      0x20\n        /* \"#utility.yul\":10612:10621   */\n      dup3\n        /* \"#utility.yul\":10608:10626   */\n      add\n        /* \"#utility.yul\":10600:10626   */\n      swap1\n      pop\n        /* \"#utility.yul\":10672:10681   */\n      dup2\n        /* \"#utility.yul\":10666:10670   */\n      dup2\n        /* \"#utility.yul\":10662:10682   */\n      sub\n        /* \"#utility.yul\":10658:10659   */\n      0x00\n        /* \"#utility.yul\":10647:10656   */\n      dup4\n        /* \"#utility.yul\":10643:10660   */\n      add\n        /* \"#utility.yul\":10636:10683   */\n      mstore\n        /* \"#utility.yul\":10700:10831   */\n      tag_223\n        /* \"#utility.yul\":10826:10830   */\n      dup2\n        /* \"#utility.yul\":10700:10831   */\n      tag_123\n      jump\t// in\n    tag_223:\n        /* \"#utility.yul\":10692:10831   */\n      swap1\n      pop\n        /* \"#utility.yul\":10419:10838   */\n      swap2\n      swap1\n      pop\n      jump\t// out\n        /* \"#utility.yul\":10844:10953   */\n    tag_124:\n        /* \"#utility.yul\":10925:10946   */\n      tag_225\n        /* \"#utility.yul\":10940:10945   */\n      dup2\n        /* \"#utility.yul\":10925:10946   */\n      tag_112\n      jump\t// in\n    tag_225:\n        /* \"#utility.yul\":10920:10923   */\n      dup3\n        /* \"#utility.yul\":10913:10947   */\n      mstore\n        /* \"#utility.yul\":10844:10953   */\n      pop\n      pop\n      jump\t// out\n        /* \"#utility.yul\":10959:11389   */\n    tag_74:\n        /* \"#utility.yul\":11102:11106   */\n      0x00\n        /* \"#utility.yul\":11140:11142   */\n      0x60\n        /* \"#utility.yul\":11129:11138   */\n      dup3\n        /* \"#utility.yul\":11125:11143   */\n      add\n        /* \"#utility.yul\":11117:11143   */\n      swap1\n      pop\n        /* \"#utility.yul\":11153:11224   */\n      tag_227\n        /* \"#utility.yul\":11221:11222   */\n      0x00\n        /* \"#utility.yul\":11210:11219   */\n      dup4\n        /* \"#utility.yul\":11206:11223   */\n      add\n        /* \"#utility.yul\":11197:11203   */\n      dup7\n        /* \"#utility.yul\":11153:11224   */\n      tag_95\n      jump\t// in\n    tag_227:\n        /* \"#utility.yul\":11234:11306   */\n      tag_228\n        /* \"#utility.yul\":11302:11304   */\n      0x20\n        /* \"#utility.yul\":11291:11300   */\n      dup4\n        /* \"#utility.yul\":11287:11305   */\n      add\n        /* \"#utility.yul\":11278:11284   */\n      dup6\n        /* \"#utility.yul\":11234:11306   */\n      tag_95\n      jump\t// in\n    tag_228:\n        /* \"#utility.yul\":11316:11382   */\n      tag_229\n        /* \"#utility.yul\":11378:11380   */\n      0x40\n        /* \"#utility.yul\":11367:11376   */\n      dup4\n        /* \"#utility.yul\":11363:11381   */\n      add\n        /* \"#utility.yul\":11354:11360   */\n      dup5\n        /* \"#utility.yul\":11316:11382   */\n      tag_124\n      jump\t// in\n    tag_229:\n        /* \"#utility.yul\":10959:11389   */\n      swap5\n      swap4\n      pop\n      pop\n      pop\n      pop\n      jump\t// out\n\n    auxdata: 0xa26469706673582212209f5e79d49ff23244ad4abdc358f8b691f04a864b991fac7dc05fb9b90e066e2964736f6c63430008180033\n}\n",
				"bytecode": {
					"linkReferences": {},
					"object": "608060405234801561000f575f80fd5b50604051610d99380380610d9983398181016040528101906100319190610114565b335f806101000a81548173ffffffffffffffffffffffffffffffffffffffff021916908373ffffffffffffffffffffffffffffffffffffffff1602179055508060015f6101000a81548173ffffffffffffffffffffffffffffffffffffffff021916908373ffffffffffffffffffffffffffffffffffffffff1602179055505061013f565b5f80fd5b5f73ffffffffffffffffffffffffffffffffffffffff82169050919050565b5f6100e3826100ba565b9050919050565b6100f3816100d9565b81146100fd575f80fd5b50565b5f8151905061010e816100ea565b92915050565b5f60208284031215610129576101286100b6565b5b5f61013684828501610100565b91505092915050565b610c4d8061014c5f395ff3fe608060405260043610610058575f3560e01c80633bed33ce14610157578063484685b01461017f5780638da5cb5b146101a757806398ea5fca146101d1578063fabf657a146101db578063fdcb606814610203576100da565b366100da575f341161009f576040517f08c379a00000000000000000000000000000000000000000000000000000000081526004016100969061076e565b60405180910390fd5b7fe1fffcc4923d04b559f4d29a8bfc6cda04eb5b0d3c460751c2402c5c5cc9109c32346040516100d09291906107e3565b60405180910390a1005b5f341161011c576040517f08c379a000000000000000000000000000000000000000000000000000000000815260040161011390610854565b60405180910390fd5b7fe1fffcc4923d04b559f4d29a8bfc6cda04eb5b0d3c460751c2402c5c5cc9109c323460405161014d9291906107e3565b60405180910390a1005b348015610162575f80fd5b5061017d600480360381019061017891906108a0565b61022d565b005b34801561018a575f80fd5b506101a560048036038101906101a091906108f5565b6103ec565b005b3480156101b2575f80fd5b506101bb61053e565b6040516101c89190610920565b60405180910390f35b6101d9610561565b005b3480156101e6575f80fd5b5061020160048036038101906101fc91906108f5565b61059c565b005b34801561020e575f80fd5b506102176106ef565b6040516102249190610994565b60405180910390f35b60015f9054906101000a900473ffffffffffffffffffffffffffffffffffffffff1673ffffffffffffffffffffffffffffffffffffffff1663074864db30326040518363ffffffff1660e01b81526004016102899291906109ad565b602060405180830381865afa1580156102a4573d5f803e3d5ffd5b505050506040513d601f19601f820116820180604052508101906102c89190610a09565b610307576040517f08c379a00000000000000000000000000000000000000000000000000000000081526004016102fe90610aa4565b60405180910390fd5b5f3273ffffffffffffffffffffffffffffffffffffffff168260405161032c90610aef565b5f6040518083038185875af1925050503d805f8114610366576040519150601f19603f3d011682016040523d82523d5f602084013e61036b565b606091505b50509050806103af576040517f08c379a00000000000000000000000000000000000000000000000000000000081526004016103a690610b4d565b60405180910390fd5b7f884edad9ce6fa2440d8a54cc123490eb96d2768479d49ff9c7366125a942436432836040516103e09291906107e3565b60405180910390a15050565b3373ffffffffffffffffffffffffffffffffffffffff165f8054906101000a900473ffffffffffffffffffffffffffffffffffffffff1673ffffffffffffffffffffffffffffffffffffffff1614610479576040517f08c379a000000000000000000000000000000000000000000000000000000000815260040161047090610bb5565b60405180910390fd5b60015f9054906101000a900473ffffffffffffffffffffffffffffffffffffffff1673ffffffffffffffffffffffffffffffffffffffff1663cc8f6fb830835f6040518463ffffffff1660e01b81526004016104d793929190610be2565b5f604051808303815f87803b1580156104ee575f80fd5b505af1158015610500573d5f803e3d5ffd5b505050507f6b71a032dfcb3458d3c044d9fb7cbb8eee40244f1ced7dff4f5005589aa82245816040516105339190610920565b60405180910390a150565b5f8054906101000a900473ffffffffffffffffffffffffffffffffffffffff1681565b7fe1fffcc4923d04b559f4d29a8bfc6cda04eb5b0d3c460751c2402c5c5cc9109c32346040516105929291906107e3565b60405180910390a1565b3373ffffffffffffffffffffffffffffffffffffffff165f8054906101000a900473ffffffffffffffffffffffffffffffffffffffff1673ffffffffffffffffffffffffffffffffffffffff1614610629576040517f08c379a000000000000000000000000000000000000000000000000000000000815260040161062090610bb5565b60405180910390fd5b60015f9054906101000a900473ffffffffffffffffffffffffffffffffffffffff1673ffffffffffffffffffffffffffffffffffffffff1663cc8f6fb8308360016040518463ffffffff1660e01b815260040161068893929190610be2565b5f604051808303815f87803b15801561069f575f80fd5b505af11580156106b1573d5f803e3d5ffd5b505050507fc2c78c7c31baf14949e75c51df12be56edb9af523cf82839c2869bbcf13b3ecb816040516106e49190610920565b60405180910390a150565b60015f9054906101000a900473ffffffffffffffffffffffffffffffffffffffff1681565b5f82825260208201905092915050565b7f4e6f204554482073656e740000000000000000000000000000000000000000005f82015250565b5f610758600b83610714565b915061076382610724565b602082019050919050565b5f6020820190508181035f8301526107858161074c565b9050919050565b5f73ffffffffffffffffffffffffffffffffffffffff82169050919050565b5f6107b58261078c565b9050919050565b6107c5816107ab565b82525050565b5f819050919050565b6107dd816107cb565b82525050565b5f6040820190506107f65f8301856107bc565b61080360208301846107d4565b9392505050565b7f46616c6c6261636b2063616c6c656420776974686f75742076616c75650000005f82015250565b5f61083e601d83610714565b91506108498261080a565b602082019050919050565b5f6020820190508181035f83015261086b81610832565b9050919050565b5f80fd5b61087f816107cb565b8114610889575f80fd5b50565b5f8135905061089a81610876565b92915050565b5f602082840312156108b5576108b4610872565b5b5f6108c28482850161088c565b91505092915050565b6108d4816107ab565b81146108de575f80fd5b50565b5f813590506108ef816108cb565b92915050565b5f6020828403121561090a57610909610872565b5b5f610917848285016108e1565b91505092915050565b5f6020820190506109335f8301846107bc565b92915050565b5f819050919050565b5f61095c6109576109528461078c565b610939565b61078c565b9050919050565b5f61096d82610942565b9050919050565b5f61097e82610963565b9050919050565b61098e81610974565b82525050565b5f6020820190506109a75f830184610985565b92915050565b5f6040820190506109c05f8301856107bc565b6109cd60208301846107bc565b9392505050565b5f8115159050919050565b6109e8816109d4565b81146109f2575f80fd5b50565b5f81519050610a03816109df565b92915050565b5f60208284031215610a1e57610a1d610872565b5b5f610a2b848285016109f5565b91505092915050565b7f5468652073656e64657220646f6573206e6f74206861766520746865207265715f8201527f756972656420617070726f76616c000000000000000000000000000000000000602082015250565b5f610a8e602e83610714565b9150610a9982610a34565b604082019050919050565b5f6020820190508181035f830152610abb81610a82565b9050919050565b5f81905092915050565b50565b5f610ada5f83610ac2565b9150610ae582610acc565b5f82019050919050565b5f610af982610acf565b9150819050919050565b7f5769746864726177206572726f720000000000000000000000000000000000005f82015250565b5f610b37600e83610714565b9150610b4282610b03565b602082019050919050565b5f6020820190508181035f830152610b6481610b2b565b9050919050565b7f596f7520617265206e6f7420746865206f776e657200000000000000000000005f82015250565b5f610b9f601583610714565b9150610baa82610b6b565b602082019050919050565b5f6020820190508181035f830152610bcc81610b93565b9050919050565b610bdc816109d4565b82525050565b5f606082019050610bf55f8301866107bc565b610c0260208301856107bc565b610c0f6040830184610bd3565b94935050505056fea26469706673582212209f5e79d49ff23244ad4abdc358f8b691f04a864b991fac7dc05fb9b90e066e2964736f6c63430008180033",
					"opcodes": "PUSH1 0x80 PUSH1 0x40 MSTORE CALLVALUE DUP1 ISZERO PUSH2 0xF JUMPI PUSH0 DUP1 REVERT JUMPDEST POP PUSH1 0x40 MLOAD PUSH2 0xD99 CODESIZE SUB DUP1 PUSH2 0xD99 DUP4 CODECOPY DUP2 DUP2 ADD PUSH1 0x40 MSTORE DUP2 ADD SWAP1 PUSH2 0x31 SWAP2 SWAP1 PUSH2 0x114 JUMP JUMPDEST CALLER PUSH0 DUP1 PUSH2 0x100 EXP DUP2 SLOAD DUP2 PUSH20 0xFFFFFFFFFFFFFFFFFFFFFFFFFFFFFFFFFFFFFFFF MUL NOT AND SWAP1 DUP4 PUSH20 0xFFFFFFFFFFFFFFFFFFFFFFFFFFFFFFFFFFFFFFFF AND MUL OR SWAP1 SSTORE POP DUP1 PUSH1 0x1 PUSH0 PUSH2 0x100 EXP DUP2 SLOAD DUP2 PUSH20 0xFFFFFFFFFFFFFFFFFFFFFFFFFFFFFFFFFFFFFFFF MUL NOT AND SWAP1 DUP4 PUSH20 0xFFFFFFFFFFFFFFFFFFFFFFFFFFFFFFFFFFFFFFFF AND MUL OR SWAP1 SSTORE POP POP PUSH2 0x13F JUMP JUMPDEST PUSH0 DUP1 REVERT JUMPDEST PUSH0 PUSH20 0xFFFFFFFFFFFFFFFFFFFFFFFFFFFFFFFFFFFFFFFF DUP3 AND SWAP1 POP SWAP2 SWAP1 POP JUMP JUMPDEST PUSH0 PUSH2 0xE3 DUP3 PUSH2 0xBA JUMP JUMPDEST SWAP1 POP SWAP2 SWAP1 POP JUMP JUMPDEST PUSH2 0xF3 DUP2 PUSH2 0xD9 JUMP JUMPDEST DUP2 EQ PUSH2 0xFD JUMPI PUSH0 DUP1 REVERT JUMPDEST POP JUMP JUMPDEST PUSH0 DUP2 MLOAD SWAP1 POP PUSH2 0x10E DUP2 PUSH2 0xEA JUMP JUMPDEST SWAP3 SWAP2 POP POP JUMP JUMPDEST PUSH0 PUSH1 0x20 DUP3 DUP5 SUB SLT ISZERO PUSH2 0x129 JUMPI PUSH2 0x128 PUSH2 0xB6 JUMP JUMPDEST JUMPDEST PUSH0 PUSH2 0x136 DUP5 DUP3 DUP6 ADD PUSH2 0x100 JUMP JUMPDEST SWAP2 POP POP SWAP3 SWAP2 POP POP JUMP JUMPDEST PUSH2 0xC4D DUP1 PUSH2 0x14C PUSH0 CODECOPY PUSH0 RETURN INVALID PUSH1 0x80 PUSH1 0x40 MSTORE PUSH1 0x4 CALLDATASIZE LT PUSH2 0x58 JUMPI PUSH0 CALLDATALOAD PUSH1 0xE0 SHR DUP1 PUSH4 0x3BED33CE EQ PUSH2 0x157 JUMPI DUP1 PUSH4 0x484685B0 EQ PUSH2 0x17F JUMPI DUP1 PUSH4 0x8DA5CB5B EQ PUSH2 0x1A7 JUMPI DUP1 PUSH4 0x98EA5FCA EQ PUSH2 0x1D1 JUMPI DUP1 PUSH4 0xFABF657A EQ PUSH2 0x1DB JUMPI DUP1 PUSH4 0xFDCB6068 EQ PUSH2 0x203 JUMPI PUSH2 0xDA JUMP JUMPDEST CALLDATASIZE PUSH2 0xDA JUMPI PUSH0 CALLVALUE GT PUSH2 0x9F JUMPI PUSH1 0x40 MLOAD PUSH32 0x8C379A000000000000000000000000000000000000000000000000000000000 DUP2 MSTORE PUSH1 0x4 ADD PUSH2 0x96 SWAP1 PUSH2 0x76E JUMP JUMPDEST PUSH1 0x40 MLOAD DUP1 SWAP2 SUB SWAP1 REVERT JUMPDEST PUSH32 0xE1FFFCC4923D04B559F4D29A8BFC6CDA04EB5B0D3C460751C2402C5C5CC9109C ORIGIN CALLVALUE PUSH1 0x40 MLOAD PUSH2 0xD0 SWAP3 SWAP2 SWAP1 PUSH2 0x7E3 JUMP JUMPDEST PUSH1 0x40 MLOAD DUP1 SWAP2 SUB SWAP1 LOG1 STOP JUMPDEST PUSH0 CALLVALUE GT PUSH2 0x11C JUMPI PUSH1 0x40 MLOAD PUSH32 0x8C379A000000000000000000000000000000000000000000000000000000000 DUP2 MSTORE PUSH1 0x4 ADD PUSH2 0x113 SWAP1 PUSH2 0x854 JUMP JUMPDEST PUSH1 0x40 MLOAD DUP1 SWAP2 SUB SWAP1 REVERT JUMPDEST PUSH32 0xE1FFFCC4923D04B559F4D29A8BFC6CDA04EB5B0D3C460751C2402C5C5CC9109C ORIGIN CALLVALUE PUSH1 0x40 MLOAD PUSH2 0x14D SWAP3 SWAP2 SWAP1 PUSH2 0x7E3 JUMP JUMPDEST PUSH1 0x40 MLOAD DUP1 SWAP2 SUB SWAP1 LOG1 STOP JUMPDEST CALLVALUE DUP1 ISZERO PUSH2 0x162 JUMPI PUSH0 DUP1 REVERT JUMPDEST POP PUSH2 0x17D PUSH1 0x4 DUP1 CALLDATASIZE SUB DUP2 ADD SWAP1 PUSH2 0x178 SWAP2 SWAP1 PUSH2 0x8A0 JUMP JUMPDEST PUSH2 0x22D JUMP JUMPDEST STOP JUMPDEST CALLVALUE DUP1 ISZERO PUSH2 0x18A JUMPI PUSH0 DUP1 REVERT JUMPDEST POP PUSH2 0x1A5 PUSH1 0x4 DUP1 CALLDATASIZE SUB DUP2 ADD SWAP1 PUSH2 0x1A0 SWAP2 SWAP1 PUSH2 0x8F5 JUMP JUMPDEST PUSH2 0x3EC JUMP JUMPDEST STOP JUMPDEST CALLVALUE DUP1 ISZERO PUSH2 0x1B2 JUMPI PUSH0 DUP1 REVERT JUMPDEST POP PUSH2 0x1BB PUSH2 0x53E JUMP JUMPDEST PUSH1 0x40 MLOAD PUSH2 0x1C8 SWAP2 SWAP1 PUSH2 0x920 JUMP JUMPDEST PUSH1 0x40 MLOAD DUP1 SWAP2 SUB SWAP1 RETURN JUMPDEST PUSH2 0x1D9 PUSH2 0x561 JUMP JUMPDEST STOP JUMPDEST CALLVALUE DUP1 ISZERO PUSH2 0x1E6 JUMPI PUSH0 DUP1 REVERT JUMPDEST POP PUSH2 0x201 PUSH1 0x4 DUP1 CALLDATASIZE SUB DUP2 ADD SWAP1 PUSH2 0x1FC SWAP2 SWAP1 PUSH2 0x8F5 JUMP JUMPDEST PUSH2 0x59C JUMP JUMPDEST STOP JUMPDEST CALLVALUE DUP1 ISZERO PUSH2 0x20E JUMPI PUSH0 DUP1 REVERT JUMPDEST POP PUSH2 0x217 PUSH2 0x6EF JUMP JUMPDEST PUSH1 0x40 MLOAD PUSH2 0x224 SWAP2 SWAP1 PUSH2 0x994 JUMP JUMPDEST PUSH1 0x40 MLOAD DUP1 SWAP2 SUB SWAP1 RETURN JUMPDEST PUSH1 0x1 PUSH0 SWAP1 SLOAD SWAP1 PUSH2 0x100 EXP SWAP1 DIV PUSH20 0xFFFFFFFFFFFFFFFFFFFFFFFFFFFFFFFFFFFFFFFF AND PUSH20 0xFFFFFFFFFFFFFFFFFFFFFFFFFFFFFFFFFFFFFFFF AND PUSH4 0x74864DB ADDRESS ORIGIN PUSH1 0x40 MLOAD DUP4 PUSH4 0xFFFFFFFF AND PUSH1 0xE0 SHL DUP2 MSTORE PUSH1 0x4 ADD PUSH2 0x289 SWAP3 SWAP2 SWAP1 PUSH2 0x9AD JUMP JUMPDEST PUSH1 0x20 PUSH1 0x40 MLOAD DUP1 DUP4 SUB DUP2 DUP7 GAS STATICCALL ISZERO DUP1 ISZERO PUSH2 0x2A4 JUMPI RETURNDATASIZE PUSH0 DUP1 RETURNDATACOPY RETURNDATASIZE PUSH0 REVERT JUMPDEST POP POP POP POP PUSH1 0x40 MLOAD RETURNDATASIZE PUSH1 0x1F NOT PUSH1 0x1F DUP3 ADD AND DUP3 ADD DUP1 PUSH1 0x40 MSTORE POP DUP2 ADD SWAP1 PUSH2 0x2C8 SWAP2 SWAP1 PUSH2 0xA09 JUMP JUMPDEST PUSH2 0x307 JUMPI PUSH1 0x40 MLOAD PUSH32 0x8C379A000000000000000000000000000000000000000000000000000000000 DUP2 MSTORE PUSH1 0x4 ADD PUSH2 0x2FE SWAP1 PUSH2 0xAA4 JUMP JUMPDEST PUSH1 0x40 MLOAD DUP1 SWAP2 SUB SWAP1 REVERT JUMPDEST PUSH0 ORIGIN PUSH20 0xFFFFFFFFFFFFFFFFFFFFFFFFFFFFFFFFFFFFFFFF AND DUP3 PUSH1 0x40 MLOAD PUSH2 0x32C SWAP1 PUSH2 0xAEF JUMP JUMPDEST PUSH0 PUSH1 0x40 MLOAD DUP1 DUP4 SUB DUP2 DUP6 DUP8 GAS CALL SWAP3 POP POP POP RETURNDATASIZE DUP1 PUSH0 DUP2 EQ PUSH2 0x366 JUMPI PUSH1 0x40 MLOAD SWAP2 POP PUSH1 0x1F NOT PUSH1 0x3F RETURNDATASIZE ADD AND DUP3 ADD PUSH1 0x40 MSTORE RETURNDATASIZE DUP3 MSTORE RETURNDATASIZE PUSH0 PUSH1 0x20 DUP5 ADD RETURNDATACOPY PUSH2 0x36B JUMP JUMPDEST PUSH1 0x60 SWAP2 POP JUMPDEST POP POP SWAP1 POP DUP1 PUSH2 0x3AF JUMPI PUSH1 0x40 MLOAD PUSH32 0x8C379A000000000000000000000000000000000000000000000000000000000 DUP2 MSTORE PUSH1 0x4 ADD PUSH2 0x3A6 SWAP1 PUSH2 0xB4D JUMP JUMPDEST PUSH1 0x40 MLOAD DUP1 SWAP2 SUB SWAP1 REVERT JUMPDEST PUSH32 0x884EDAD9CE6FA2440D8A54CC123490EB96D2768479D49FF9C7366125A9424364 ORIGIN DUP4 PUSH1 0x40 MLOAD PUSH2 0x3E0 SWAP3 SWAP2 SWAP1 PUSH2 0x7E3 JUMP JUMPDEST PUSH1 0x40 MLOAD DUP1 SWAP2 SUB SWAP1 LOG1 POP POP JUMP JUMPDEST CALLER PUSH20 0xFFFFFFFFFFFFFFFFFFFFFFFFFFFFFFFFFFFFFFFF AND PUSH0 DUP1 SLOAD SWAP1 PUSH2 0x100 EXP SWAP1 DIV PUSH20 0xFFFFFFFFFFFFFFFFFFFFFFFFFFFFFFFFFFFFFFFF AND PUSH20 0xFFFFFFFFFFFFFFFFFFFFFFFFFFFFFFFFFFFFFFFF AND EQ PUSH2 0x479 JUMPI PUSH1 0x40 MLOAD PUSH32 0x8C379A000000000000000000000000000000000000000000000000000000000 DUP2 MSTORE PUSH1 0x4 ADD PUSH2 0x470 SWAP1 PUSH2 0xBB5 JUMP JUMPDEST PUSH1 0x40 MLOAD DUP1 SWAP2 SUB SWAP1 REVERT JUMPDEST PUSH1 0x1 PUSH0 SWAP1 SLOAD SWAP1 PUSH2 0x100 EXP SWAP1 DIV PUSH20 0xFFFFFFFFFFFFFFFFFFFFFFFFFFFFFFFFFFFFFFFF AND PUSH20 0xFFFFFFFFFFFFFFFFFFFFFFFFFFFFFFFFFFFFFFFF AND PUSH4 0xCC8F6FB8 ADDRESS DUP4 PUSH0 PUSH1 0x40 MLOAD DUP5 PUSH4 0xFFFFFFFF AND PUSH1 0xE0 SHL DUP2 MSTORE PUSH1 0x4 ADD PUSH2 0x4D7 SWAP4 SWAP3 SWAP2 SWAP1 PUSH2 0xBE2 JUMP JUMPDEST PUSH0 PUSH1 0x40 MLOAD DUP1 DUP4 SUB DUP2 PUSH0 DUP8 DUP1 EXTCODESIZE ISZERO DUP1 ISZERO PUSH2 0x4EE JUMPI PUSH0 DUP1 REVERT JUMPDEST POP GAS CALL ISZERO DUP1 ISZERO PUSH2 0x500 JUMPI RETURNDATASIZE PUSH0 DUP1 RETURNDATACOPY RETURNDATASIZE PUSH0 REVERT JUMPDEST POP POP POP POP PUSH32 0x6B71A032DFCB3458D3C044D9FB7CBB8EEE40244F1CED7DFF4F5005589AA82245 DUP2 PUSH1 0x40 MLOAD PUSH2 0x533 SWAP2 SWAP1 PUSH2 0x920 JUMP JUMPDEST PUSH1 0x40 MLOAD DUP1 SWAP2 SUB SWAP1 LOG1 POP JUMP JUMPDEST PUSH0 DUP1 SLOAD SWAP1 PUSH2 0x100 EXP SWAP1 DIV PUSH20 0xFFFFFFFFFFFFFFFFFFFFFFFFFFFFFFFFFFFFFFFF AND DUP2 JUMP JUMPDEST PUSH32 0xE1FFFCC4923D04B559F4D29A8BFC6CDA04EB5B0D3C460751C2402C5C5CC9109C ORIGIN CALLVALUE PUSH1 0x40 MLOAD PUSH2 0x592 SWAP3 SWAP2 SWAP1 PUSH2 0x7E3 JUMP JUMPDEST PUSH1 0x40 MLOAD DUP1 SWAP2 SUB SWAP1 LOG1 JUMP JUMPDEST CALLER PUSH20 0xFFFFFFFFFFFFFFFFFFFFFFFFFFFFFFFFFFFFFFFF AND PUSH0 DUP1 SLOAD SWAP1 PUSH2 0x100 EXP SWAP1 DIV PUSH20 0xFFFFFFFFFFFFFFFFFFFFFFFFFFFFFFFFFFFFFFFF AND PUSH20 0xFFFFFFFFFFFFFFFFFFFFFFFFFFFFFFFFFFFFFFFF AND EQ PUSH2 0x629 JUMPI PUSH1 0x40 MLOAD PUSH32 0x8C379A000000000000000000000000000000000000000000000000000000000 DUP2 MSTORE PUSH1 0x4 ADD PUSH2 0x620 SWAP1 PUSH2 0xBB5 JUMP JUMPDEST PUSH1 0x40 MLOAD DUP1 SWAP2 SUB SWAP1 REVERT JUMPDEST PUSH1 0x1 PUSH0 SWAP1 SLOAD SWAP1 PUSH2 0x100 EXP SWAP1 DIV PUSH20 0xFFFFFFFFFFFFFFFFFFFFFFFFFFFFFFFFFFFFFFFF AND PUSH20 0xFFFFFFFFFFFFFFFFFFFFFFFFFFFFFFFFFFFFFFFF AND PUSH4 0xCC8F6FB8 ADDRESS DUP4 PUSH1 0x1 PUSH1 0x40 MLOAD DUP5 PUSH4 0xFFFFFFFF AND PUSH1 0xE0 SHL DUP2 MSTORE PUSH1 0x4 ADD PUSH2 0x688 SWAP4 SWAP3 SWAP2 SWAP1 PUSH2 0xBE2 JUMP JUMPDEST PUSH0 PUSH1 0x40 MLOAD DUP1 DUP4 SUB DUP2 PUSH0 DUP8 DUP1 EXTCODESIZE ISZERO DUP1 ISZERO PUSH2 0x69F JUMPI PUSH0 DUP1 REVERT JUMPDEST POP GAS CALL ISZERO DUP1 ISZERO PUSH2 0x6B1 JUMPI RETURNDATASIZE PUSH0 DUP1 RETURNDATACOPY RETURNDATASIZE PUSH0 REVERT JUMPDEST POP POP POP POP PUSH32 0xC2C78C7C31BAF14949E75C51DF12BE56EDB9AF523CF82839C2869BBCF13B3ECB DUP2 PUSH1 0x40 MLOAD PUSH2 0x6E4 SWAP2 SWAP1 PUSH2 0x920 JUMP JUMPDEST PUSH1 0x40 MLOAD DUP1 SWAP2 SUB SWAP1 LOG1 POP JUMP JUMPDEST PUSH1 0x1 PUSH0 SWAP1 SLOAD SWAP1 PUSH2 0x100 EXP SWAP1 DIV PUSH20 0xFFFFFFFFFFFFFFFFFFFFFFFFFFFFFFFFFFFFFFFF AND DUP2 JUMP JUMPDEST PUSH0 DUP3 DUP3 MSTORE PUSH1 0x20 DUP3 ADD SWAP1 POP SWAP3 SWAP2 POP POP JUMP JUMPDEST PUSH32 0x4E6F204554482073656E74000000000000000000000000000000000000000000 PUSH0 DUP3 ADD MSTORE POP JUMP JUMPDEST PUSH0 PUSH2 0x758 PUSH1 0xB DUP4 PUSH2 0x714 JUMP JUMPDEST SWAP2 POP PUSH2 0x763 DUP3 PUSH2 0x724 JUMP JUMPDEST PUSH1 0x20 DUP3 ADD SWAP1 POP SWAP2 SWAP1 POP JUMP JUMPDEST PUSH0 PUSH1 0x20 DUP3 ADD SWAP1 POP DUP2 DUP2 SUB PUSH0 DUP4 ADD MSTORE PUSH2 0x785 DUP2 PUSH2 0x74C JUMP JUMPDEST SWAP1 POP SWAP2 SWAP1 POP JUMP JUMPDEST PUSH0 PUSH20 0xFFFFFFFFFFFFFFFFFFFFFFFFFFFFFFFFFFFFFFFF DUP3 AND SWAP1 POP SWAP2 SWAP1 POP JUMP JUMPDEST PUSH0 PUSH2 0x7B5 DUP3 PUSH2 0x78C JUMP JUMPDEST SWAP1 POP SWAP2 SWAP1 POP JUMP JUMPDEST PUSH2 0x7C5 DUP2 PUSH2 0x7AB JUMP JUMPDEST DUP3 MSTORE POP POP JUMP JUMPDEST PUSH0 DUP2 SWAP1 POP SWAP2 SWAP1 POP JUMP JUMPDEST PUSH2 0x7DD DUP2 PUSH2 0x7CB JUMP JUMPDEST DUP3 MSTORE POP POP JUMP JUMPDEST PUSH0 PUSH1 0x40 DUP3 ADD SWAP1 POP PUSH2 0x7F6 PUSH0 DUP4 ADD DUP6 PUSH2 0x7BC JUMP JUMPDEST PUSH2 0x803 PUSH1 0x20 DUP4 ADD DUP5 PUSH2 0x7D4 JUMP JUMPDEST SWAP4 SWAP3 POP POP POP JUMP JUMPDEST PUSH32 0x46616C6C6261636B2063616C6C656420776974686F75742076616C7565000000 PUSH0 DUP3 ADD MSTORE POP JUMP JUMPDEST PUSH0 PUSH2 0x83E PUSH1 0x1D DUP4 PUSH2 0x714 JUMP JUMPDEST SWAP2 POP PUSH2 0x849 DUP3 PUSH2 0x80A JUMP JUMPDEST PUSH1 0x20 DUP3 ADD SWAP1 POP SWAP2 SWAP1 POP JUMP JUMPDEST PUSH0 PUSH1 0x20 DUP3 ADD SWAP1 POP DUP2 DUP2 SUB PUSH0 DUP4 ADD MSTORE PUSH2 0x86B DUP2 PUSH2 0x832 JUMP JUMPDEST SWAP1 POP SWAP2 SWAP1 POP JUMP JUMPDEST PUSH0 DUP1 REVERT JUMPDEST PUSH2 0x87F DUP2 PUSH2 0x7CB JUMP JUMPDEST DUP2 EQ PUSH2 0x889 JUMPI PUSH0 DUP1 REVERT JUMPDEST POP JUMP JUMPDEST PUSH0 DUP2 CALLDATALOAD SWAP1 POP PUSH2 0x89A DUP2 PUSH2 0x876 JUMP JUMPDEST SWAP3 SWAP2 POP POP JUMP JUMPDEST PUSH0 PUSH1 0x20 DUP3 DUP5 SUB SLT ISZERO PUSH2 0x8B5 JUMPI PUSH2 0x8B4 PUSH2 0x872 JUMP JUMPDEST JUMPDEST PUSH0 PUSH2 0x8C2 DUP5 DUP3 DUP6 ADD PUSH2 0x88C JUMP JUMPDEST SWAP2 POP POP SWAP3 SWAP2 POP POP JUMP JUMPDEST PUSH2 0x8D4 DUP2 PUSH2 0x7AB JUMP JUMPDEST DUP2 EQ PUSH2 0x8DE JUMPI PUSH0 DUP1 REVERT JUMPDEST POP JUMP JUMPDEST PUSH0 DUP2 CALLDATALOAD SWAP1 POP PUSH2 0x8EF DUP2 PUSH2 0x8CB JUMP JUMPDEST SWAP3 SWAP2 POP POP JUMP JUMPDEST PUSH0 PUSH1 0x20 DUP3 DUP5 SUB SLT ISZERO PUSH2 0x90A JUMPI PUSH2 0x909 PUSH2 0x872 JUMP JUMPDEST JUMPDEST PUSH0 PUSH2 0x917 DUP5 DUP3 DUP6 ADD PUSH2 0x8E1 JUMP JUMPDEST SWAP2 POP POP SWAP3 SWAP2 POP POP JUMP JUMPDEST PUSH0 PUSH1 0x20 DUP3 ADD SWAP1 POP PUSH2 0x933 PUSH0 DUP4 ADD DUP5 PUSH2 0x7BC JUMP JUMPDEST SWAP3 SWAP2 POP POP JUMP JUMPDEST PUSH0 DUP2 SWAP1 POP SWAP2 SWAP1 POP JUMP JUMPDEST PUSH0 PUSH2 0x95C PUSH2 0x957 PUSH2 0x952 DUP5 PUSH2 0x78C JUMP JUMPDEST PUSH2 0x939 JUMP JUMPDEST PUSH2 0x78C JUMP JUMPDEST SWAP1 POP SWAP2 SWAP1 POP JUMP JUMPDEST PUSH0 PUSH2 0x96D DUP3 PUSH2 0x942 JUMP JUMPDEST SWAP1 POP SWAP2 SWAP1 POP JUMP JUMPDEST PUSH0 PUSH2 0x97E DUP3 PUSH2 0x963 JUMP JUMPDEST SWAP1 POP SWAP2 SWAP1 POP JUMP JUMPDEST PUSH2 0x98E DUP2 PUSH2 0x974 JUMP JUMPDEST DUP3 MSTORE POP POP JUMP JUMPDEST PUSH0 PUSH1 0x20 DUP3 ADD SWAP1 POP PUSH2 0x9A7 PUSH0 DUP4 ADD DUP5 PUSH2 0x985 JUMP JUMPDEST SWAP3 SWAP2 POP POP JUMP JUMPDEST PUSH0 PUSH1 0x40 DUP3 ADD SWAP1 POP PUSH2 0x9C0 PUSH0 DUP4 ADD DUP6 PUSH2 0x7BC JUMP JUMPDEST PUSH2 0x9CD PUSH1 0x20 DUP4 ADD DUP5 PUSH2 0x7BC JUMP JUMPDEST SWAP4 SWAP3 POP POP POP JUMP JUMPDEST PUSH0 DUP2 ISZERO ISZERO SWAP1 POP SWAP2 SWAP1 POP JUMP JUMPDEST PUSH2 0x9E8 DUP2 PUSH2 0x9D4 JUMP JUMPDEST DUP2 EQ PUSH2 0x9F2 JUMPI PUSH0 DUP1 REVERT JUMPDEST POP JUMP JUMPDEST PUSH0 DUP2 MLOAD SWAP1 POP PUSH2 0xA03 DUP2 PUSH2 0x9DF JUMP JUMPDEST SWAP3 SWAP2 POP POP JUMP JUMPDEST PUSH0 PUSH1 0x20 DUP3 DUP5 SUB SLT ISZERO PUSH2 0xA1E JUMPI PUSH2 0xA1D PUSH2 0x872 JUMP JUMPDEST JUMPDEST PUSH0 PUSH2 0xA2B DUP5 DUP3 DUP6 ADD PUSH2 0x9F5 JUMP JUMPDEST SWAP2 POP POP SWAP3 SWAP2 POP POP JUMP JUMPDEST PUSH32 0x5468652073656E64657220646F6573206E6F7420686176652074686520726571 PUSH0 DUP3 ADD MSTORE PUSH32 0x756972656420617070726F76616C000000000000000000000000000000000000 PUSH1 0x20 DUP3 ADD MSTORE POP JUMP JUMPDEST PUSH0 PUSH2 0xA8E PUSH1 0x2E DUP4 PUSH2 0x714 JUMP JUMPDEST SWAP2 POP PUSH2 0xA99 DUP3 PUSH2 0xA34 JUMP JUMPDEST PUSH1 0x40 DUP3 ADD SWAP1 POP SWAP2 SWAP1 POP JUMP JUMPDEST PUSH0 PUSH1 0x20 DUP3 ADD SWAP1 POP DUP2 DUP2 SUB PUSH0 DUP4 ADD MSTORE PUSH2 0xABB DUP2 PUSH2 0xA82 JUMP JUMPDEST SWAP1 POP SWAP2 SWAP1 POP JUMP JUMPDEST PUSH0 DUP2 SWAP1 POP SWAP3 SWAP2 POP POP JUMP JUMPDEST POP JUMP JUMPDEST PUSH0 PUSH2 0xADA PUSH0 DUP4 PUSH2 0xAC2 JUMP JUMPDEST SWAP2 POP PUSH2 0xAE5 DUP3 PUSH2 0xACC JUMP JUMPDEST PUSH0 DUP3 ADD SWAP1 POP SWAP2 SWAP1 POP JUMP JUMPDEST PUSH0 PUSH2 0xAF9 DUP3 PUSH2 0xACF JUMP JUMPDEST SWAP2 POP DUP2 SWAP1 POP SWAP2 SWAP1 POP JUMP JUMPDEST PUSH32 0x5769746864726177206572726F72000000000000000000000000000000000000 PUSH0 DUP3 ADD MSTORE POP JUMP JUMPDEST PUSH0 PUSH2 0xB37 PUSH1 0xE DUP4 PUSH2 0x714 JUMP JUMPDEST SWAP2 POP PUSH2 0xB42 DUP3 PUSH2 0xB03 JUMP JUMPDEST PUSH1 0x20 DUP3 ADD SWAP1 POP SWAP2 SWAP1 POP JUMP JUMPDEST PUSH0 PUSH1 0x20 DUP3 ADD SWAP1 POP DUP2 DUP2 SUB PUSH0 DUP4 ADD MSTORE PUSH2 0xB64 DUP2 PUSH2 0xB2B JUMP JUMPDEST SWAP1 POP SWAP2 SWAP1 POP JUMP JUMPDEST PUSH32 0x596F7520617265206E6F7420746865206F776E65720000000000000000000000 PUSH0 DUP3 ADD MSTORE POP JUMP JUMPDEST PUSH0 PUSH2 0xB9F PUSH1 0x15 DUP4 PUSH2 0x714 JUMP JUMPDEST SWAP2 POP PUSH2 0xBAA DUP3 PUSH2 0xB6B JUMP JUMPDEST PUSH1 0x20 DUP3 ADD SWAP1 POP SWAP2 SWAP1 POP JUMP JUMPDEST PUSH0 PUSH1 0x20 DUP3 ADD SWAP1 POP DUP2 DUP2 SUB PUSH0 DUP4 ADD MSTORE PUSH2 0xBCC DUP2 PUSH2 0xB93 JUMP JUMPDEST SWAP1 POP SWAP2 SWAP1 POP JUMP JUMPDEST PUSH2 0xBDC DUP2 PUSH2 0x9D4 JUMP JUMPDEST DUP3 MSTORE POP POP JUMP JUMPDEST PUSH0 PUSH1 0x60 DUP3 ADD SWAP1 POP PUSH2 0xBF5 PUSH0 DUP4 ADD DUP7 PUSH2 0x7BC JUMP JUMPDEST PUSH2 0xC02 PUSH1 0x20 DUP4 ADD DUP6 PUSH2 0x7BC JUMP JUMPDEST PUSH2 0xC0F PUSH1 0x40 DUP4 ADD DUP5 PUSH2 0xBD3 JUMP JUMPDEST SWAP5 SWAP4 POP POP POP POP JUMP INVALID LOG2 PUSH5 0x6970667358 0x22 SLT KECCAK256 SWAP16 MCOPY PUSH26 0xD49FF23244AD4ABDC358F8B691F04A864B991FAC7DC05FB9B90E MOD PUSH15 0x2964736F6C63430008180033000000 "
				},
				"gasEstimates": {
					"creation": {
						"codeDepositCost": "629800",
						"executionCost": "infinite",
						"totalCost": "infinite"
					},
					"external": {
						"": "1807",
						"accessManager()": "infinite",
						"approveAddress(address)": "infinite",
						"depositEther()": "1755",
						"owner()": "2527",
						"revokeApproval(address)": "infinite",
						"withdrawEther(uint256)": "infinite"
					}
				},
				"methodIdentifiers": {
					"accessManager()": "fdcb6068",
					"approveAddress(address)": "fabf657a",
					"depositEther()": "98ea5fca",
					"owner()": "8da5cb5b",
					"revokeApproval(address)": "484685b0",
					"withdrawEther(uint256)": "3bed33ce"
				}
			},
			"storageLayout": {
				"storage": [
					{
						"astId": 4,
						"contract": "programa/MulticontractWallet/UserWallet.sol:UserWallet",
						"label": "owner",
						"offset": 0,
						"slot": "0",
						"type": "t_address"
					},
					{
						"astId": 7,
						"contract": "programa/MulticontractWallet/UserWallet.sol:UserWallet",
						"label": "accessManager",
						"offset": 0,
						"slot": "1",
						"type": "t_contract(IAccessManager)219"
					}
				],
				"types": {
					"t_address": {
						"encoding": "inplace",
						"label": "address",
						"numberOfBytes": "20"
					},
					"t_contract(IAccessManager)219": {
						"encoding": "inplace",
						"label": "contract IAccessManager",
						"numberOfBytes": "20"
					}
				}
			},
			"userdoc": {
				"kind": "user",
				"methods": {},
				"version": 1
			}
		}
	}
}